:020000040800F2
:1000000000500020D5690008155C0008175C000846
:10001000195C00081B5C00081D5C00080000000063
:10002000000000000000000000000000A1400008E7
:100030001F5C0008000000004141000885410008E5
:100040001D6A00081D6A00081D6A00081D6A000874
:100050001D6A00081D6A00081D6A0008215C00086E
:100060001D6A00081D6A00081D6A00081D6A000854
:100070001D6A00081D6A00081D6A00082D5C000842
:100080001D6A00081D6A00081D6A00081D6A000834
:100090001D6A00081D6A00081D6A00081D6A000824
:1000A0001D6A00083D5C00081D6A00081D6A000802
:1000B0004D5C00085D5C00086D5C00081D6A00086E
:1000C0001D6A00087D5C00081D6A00081D6A0008A2
:1000D0001D6A00081D6A00081D6A00081D6A0008E4
:1000E0001D6A00081D6A00081D6A00080000000063
:1000F0000000000000000000000000000000000000
:0C01000000000000000000005FF808F1A3
:1001100010B5054C237833B9044B13B10448AFF341
:1001200000800123237010BD180000200000000093
:10013000846A000808B5034B1BB103490348AFF3B9
:10014000008008BD000000001C000020846A000838
:1001500008B5074A136843F010031360032000F04A
:100160001BF8002005F01AFD05F048FC002008BD32
:1001700000200240034A1168034B1B780B441360B4
:10018000704700BF8024002000000020014B186849
:10019000704700BF80240020074AD36823F4E0633F
:1001A0001B041B0C000200F4E060034343F0BF6338
:1001B00043F40033D360704700ED00E030B4174BD8
:1001C000DB68C3F30223C3F10704042C28BF042413
:1001D0001D1D062D18D9033B4FF0FF3505FA04F419
:1001E00021EA0401994005FA03F322EA03031943C3
:1001F00000280BDB0901C9B200F1604000F5614045
:1002000080F8001330BC70470023E5E700F00F00D2
:100210000901C9B2024B1954F4E700BF00ED00E038
:1002200014ED00E0002807DB00F01F024009012365
:100230009340024A42F82030704700BF00E100E0DE
:1002400070B4066CC56B0124B4406C6004686360D4
:100250004368102B05D0036899600368DA6070BCAE
:10026000704703689A600368D960F8E760B310B418
:1002700002460168154B0B441548A0FB03031B09FC
:100280009B001364134BD363022382F82130086868
:1002900020F47F5020F03000536894682343D468E2
:1002A0002343146923435469234394692343D46942
:1002B000234303430B6000209063012382F8213025
:1002C00082F8200010BC704701207047F8FFFDBF86
:1002D000CDCCCCCC0000024038B5044690F82000CC
:1002E000012831D0012084F8200094F82100012851
:1002F00004D0002384F82030022038BD022084F886
:1003000021000020A0632568286820F001002860F3
:100310002046FFF795FFE36A5BB12268136843F05C
:100320000E0313602268136843F00103136000207A
:10033000E3E72268136823F004031360226813685C
:1003400043F00A031360EDE70220D6E708B590F802
:100350002130022B03D004238363012008BD0268EF
:10036000136823F00E0313600268136823F001037F
:1003700013600368194A934214D0143293421FD079
:10038000143293421ED0143293421ED01432934240
:100390001ED01432934202D04FF0807203E04FF42B
:1003A000801200E001220E4B5A60012380F82130B8
:1003B000002380F82030436B6BB198470020CDE7D5
:1003C0001022F0E74FF48072EDE74FF48052EAE735
:1003D0004FF48032E7E70020C0E700BF080002408A
:1003E0000000024038B5C36B1A6804682568016CC8
:1003F00004238B40134235D015F0040F32D023680C
:1004000013F0200F03D1236823F004032360036853
:10041000434A934214D01432934218D01432934278
:1004200017D01432934217D01432934217D014329B
:10043000934202D04FF0806203E04FF4800200E06C
:100440000422384B5A60C36A03B1984738BD402232
:10045000F7E74FF48062F4E74FF48042F1E74FF49E
:100460008022EEE702238B4013423CD015F0020FAE
:1004700039D0236813F0200F06D1236823F00A0334
:100480002360012380F821300368254A934214D069
:10049000143293421CD0143293421BD01432934234
:1004A0001BD0143293421BD01432934202D04FF02F
:1004B000007203E04FF4001200E00222194B5A6070
:1004C000002380F82030836A002BBFD09847BDE717
:1004D0002022F3E74FF40072F0E74FF40052EDE70B
:1004E0004FF40032EAE7082303FA01F11142ADD0DC
:1004F00015F0080FAAD0236823F00E032360026CC6
:10050000C16B012303FA02F24A60836380F8213051
:10051000002380F82030036B002B97D0984795E795
:10052000080002400000024090F8210070470000DF
:10053000F0B482B000252C46A3E07F4FBB4210D020
:1005400007D97E4FBB420CD007F58037BB4208D09D
:1005500013E0A7F58017BB4203D007F57027BB4215
:1005600007D18B68002B58D0012B51D04261082550
:1005700003E0A7F58017BB42F3D0FF2E4FD8844687
:10058000FF2E4FD8A200DCF800300F27974023EA57
:10059000070305FA02F21343CCF800304B6813F05E
:1005A000805F6DD0664B9A6942F001029A619B6947
:1005B00003F001030193019BA208971C614B53F8C0
:1005C000273004F00307BF004FF00F0C0CFA07FCB4
:1005D00023EA0C0C5C4B98422AD003F580639842C6
:1005E00000F08A8003F58063984200F0878003F56D
:1005F000806398421AD004231BE0CD68BDE7CD6824
:100600000435BAE7CD680835B7E7CD680C35B4E7EF
:1006100002610825B1E70025AFE70425ADE700F149
:10062000040CADE7A4F108029200ACE7032300E05C
:100630000023BB4043EA0C030232424F47F822300A
:100640004B6813F4803F5BD0404A13683343136018
:100650004B6813F4003F59D03C4A5368334353600E
:100660004B6813F4801F57D0384A93683343936024
:100670004B6813F4001F55D0344AD3681E43D6602C
:1006800001340B6833FA04F252D00122A24003EA8B
:10069000020632EA0303F3D14B68122B3FF64DAF4B
:1006A000122B3FF66AAF01A757F823F06305000845
:1006B000FB05000805060008170600087B05000872
:1006C0007B0500087B0500087B0500087B0500080A
:1006D0007B0500087B0500087B0500087B050008FA
:1006E0007B0500087B0500087B0500087B050008EA
:1006F000FF0500080B06000801239AE7022398E78C
:10070000124A136823EA06031360A1E70F4A5368ED
:1007100023EA06035360A3E70C4A936823EA06031F
:100720009360A5E7094AD36823EA0606D660A7E7DF
:1007300002B0F0BC704700BF000022100000311072
:100740000010024000000140000801400004014088
:100750008368194201D001207047002070470AB118
:1007600001617047090401617047C36801EA03022F
:1007700021EA030141EA02410161704708B5054BD6
:100780005B69034200D108BD024B586104F062FC72
:10079000F9E700BF0004014090F83E30DBB2402B87
:1007A00010D00369B3F5804F1BD0036D002B39D1F6
:1007B000436CC3F3C813026803F0060343F0F0036D
:1007C00013617047036D2BB9436C026803F0FE039D
:1007D00013617047436C026843F00103DBB213619D
:1007E000704790F83D30DBB2212B0FD0436C02688C
:1007F00043F00103DBB21361436B6BB19B6A5BB1E6
:100800000268536843F4006353607047436C0268A6
:1008100003F0FE031361EFE7836B33B19B6A002B98
:10082000EED102E0036D012B00D07047436CC3F39F
:10083000C813026803F0060343F0F1031361F4E701
:10084000436C0268DBB21361436B3BB19B6A2BB113
:100850000268536843F4006353607047836B002B56
:10086000FBD09B6A002BF3D1F7E710B48DB090F862
:100870003E30DAB2C16A046B90F83D30DBB2222B15
:100880000AD000230B9303685A690B929B690B9360
:100890000B9B0DB010BC7047036D0BB9402A17D0ED
:1008A000036D1BB90369B3F5404F19D0438D9BB25B
:1008B000002B25D1039303685A6903929A69039226
:1008C000039A1A6842F400721A6000230365E0E795
:1008D000019303685A6901929B690193019BD8E7D0
:1008E0000023029303685A6902929A690292029A5B
:1008F0001A6842F480721A60036D01330365C8E719
:10090000438D9BB2012B25D0438D9BB2022B7BD014
:100910000268136843F48063136003685A6812F432
:10092000006F0ED011F5803F07D0012905D00829AE
:1009300003D0102901D0202903D15A6842F48052F3
:100940005A6000230A9303685A690A929B690A93C2
:100950000A9BBAE711F5803F11D0082934D020292D
:1009600032D0122C2ED0042940D002293ED010299A
:100970003CD00268136823F4806313603BE0026894
:10098000136823F48063136003685A6812F4006FDD
:100990000CD01A6822F480621A6000230493036862
:1009A0005A6904929B690493049B8EE70022059286
:1009B0005A6905929A690592059A1A6842F400727A
:1009C0001A6082E70129CED00268136823F480639D
:1009D00013600023079303685A6907929A69079284
:1009E000079A1A6842F400721A606EE70268136888
:1009F00043F4806313600023069303685A690692E8
:100A00009B690693069B60E7042915D0022913D041
:100A1000102911D00268136843F4006313600023A7
:100A2000089303685A6908929A690892089A1A68A2
:100A300022F480621A600CE00268136843F4806359
:100A400013600023099303685A6909929B6909930B
:100A5000099B03685A6812F4006F3FF436AF11F532
:100A6000803F08D0012906D0082904D0102902D0DF
:100A700020297FF42AAF5A6842F480525A6024E752
:100A8000438D9BB25BB1426A036812781A61436A74
:100A900001334362438D9BB2013B9BB24385704758
:100AA000438D9BB25BB103681A69436A1A70436A4B
:100AB00001334362438D9BB2013B9BB24385704738
:100AC00082B0002301930E4B1B68DB080D4AA2FB8A
:100AD00003231B0A03EB83030193019B013B019357
:100AE000019B33B103681B6813F4007FF5D100202C
:100AF00004E0036C43F020030364012002B070475C
:100B00001400002089B5F81403685A6912F4806F44
:100B100001D1002070476FF480625A6100230363A3
:100B2000202280F83D2080F83E30026C42F0040222
:100B3000026480F83C3001207047C36AB3F52A0F85
:100B400004D0C36AB3F12A4F03D070470123C362B4
:100B500070470823C362F8E72DE9F04107460D46C8
:100B600090461E4622E0FFF711FB069BC01AB042DA
:100B700000D8DEB900233B63202287F83D2087F8A8
:100B80003E303A6C42F020023A6487F83C30012053
:100B90001AE03B689C6925EA0404A4B2B4FA84F420
:100BA0006409A0450FD1B6F1FF3FDCD1C5F307437F
:100BB000012BEED13B685C6925EA0404A4B2B4FAC7
:100BC00084F46409EDE70020BDE8F0812DE9F041EF
:100BD00005460E46174698463DE01A6842F40072F4
:100BE0001A602B686FF480625A6100232B63202205
:100BF00085F83D2085F83E302A6C42F004022A64D4
:100C000085F83C30012034E0FFF7C0FAA0EB080083
:100C1000B84200D8FFB900232B63202285F83D207D
:100C200085F83E302A6C42F020022A6485F83C3078
:100C300001201EE02B689C6926EA0404A4B2003C53
:100C400018BF0124A4B12B685A6912F4806FC4D173
:100C5000B7F1FF3FD8D1C6F30743012BEAD12B6888
:100C60005C6926EA0404A4B2003C18BF0124E9E749
:100C70000020BDE8F0810000F0B583B004460D46C9
:100C800016461F46C36A082B0DD0012B0BD013F557
:100C9000803F08D0036B122B0AD10268136843F41B
:100CA0008073136004E02268136843F48073136058
:100CB0000097334600224FF001112046FFF74CFF0A
:100CC00080B92369B3F5804F16D1236805F0FE057E
:100CD0001D613B46324613492046FFF777FFF8B9BE
:100CE00003B0F0BD23681B6813F4807F02D04FF47B
:100CF000007323640320F3E7EB11226803F006037B
:100D000043F0F00313613B46324607492046FFF7A4
:100D10005DFF18B92368EDB21D61DAE70120DFE756
:100D20000120DDE7020001000800010070B5044663
:100D30000D46164623685B6913F0800F1CD12046D0
:100D4000FFF7E2FED0B9B5F1FF3FF3D0FFF71EFA8F
:100D5000801BA84201D8002DECD100232363202260
:100D600084F83D2084F83E30226C42F02002226458
:100D700084F83C30012000E0002070BD0120FCE739
:100D80002DE9F04784B004460D46164699460C9F5F
:100D9000DDF834800268136843F4806313600368ED
:100DA000196841F480711960CDF800803B4600223B
:100DB0004FF00111FFF7D0FE70B95FFA85FA236892
:100DC00005F0FE051D6143463A4641492046FFF7BE
:100DD000FDFE68B1012008E023681B6813F4807FE2
:100DE00002D04FF400732364032004B0BDE8F08701
:100DF0000023039323685A6903929B690393039B1F
:100E0000424639462046FFF791FF80B9B9F1010FFC
:100E100018D12368F6B21E61424639462046FFF7D4
:100E200085FF68B3236C042B24D00120DDE7236CFD
:100E3000042B01D00120D8E72268136843F4007323
:100E40001360F7E72368320A1A61424639462046A2
:100E5000FFF76CFF18B92368F6B21E61DCE7236C5C
:100E6000042B01D00120C0E72268136843F400730B
:100E70001360F7E72268136843F400731360D4E744
:100E80002268136843F480731360CDF800803B46FA
:100E900000224FF001112046FFF75EFE68B922687C
:100EA0004AF00103136143463A4609492046FFF7D9
:100EB0008DFE002899D0012097E723681B6813F462
:100EC000807F02D04FF40073236403208DE700BFBE
:100ED0000200010070B504460D46164623685B69A2
:100EE00013F0040F1CD12046FFF70EFED0B9B5F168
:100EF000FF3FF3D0FFF74AF9801BA84201D8002D2D
:100F0000ECD100232363202284F83D2084F83E3076
:100F1000226C42F02002226484F83C30012000E080
:100F2000002070BD0120FCE7002800F0CC80F8B55F
:100F3000044690F83D30002B77D0242384F83D30D0
:100F40002268136823F0010313602268136843F4D6
:100F5000004313602268136823F40043136001F018
:100F6000A3FB62685A4B9A4264D85A4B98428CBF92
:100F700000230123002B40F0A880574DA5FB00352E
:100F8000AF0C2668716821F03F0141EA954171601C
:100F900021680B6A23F03F0365684D4A95424FD89C
:100FA0007A1C13430B622568E96921F44F4121F053
:100FB000FF016368464A93424CD801385B00B0FB9E
:100FC000F3F0013040F6FC73184278D0C0F30B0305
:100FD0000B43EB6121680B6823F0C003E269206AD0
:100FE000024313430B6021688B6823F4034323F00F
:100FF000FF032269E068024313438B602168CB68DA
:1010000023F0FF036269A06902431343CB602268A7
:10101000136843F00103136000202064202384F848
:101020003D30206384F83E00F8BD80F83C3004F089
:101030000FFD82E7294B98428CBF0023012399E7DB
:101040004FF4967202FB07F2254DA5FB025292095E
:101050000132A6E7A268BAB9461E03EB4307B6FB06
:10106000F7F60136C6F30B06B6FA86F6760946BBE6
:10107000C2B9421E03EB4303B2FBF3F20132C2F3E7
:101080000B0242F40043A3E7461E03EB830707EB82
:101090008707B6FBF7F60136C6F30B06B6FA86F6F7
:1010A0007609E4E7421E03EB830303EB8303B2FB01
:1010B000F3F20132C2F30B0242F4404388E7042307
:1010C00086E7012384E7012070470120ACE700BFD9
:1010D000A08601007F841E0083DE1B43FF083D00C5
:1010E000D34D62102DE9F04385B004460F4691467A
:1010F00098460C9EFFF74AF8054694F83D00C0B2AA
:10110000202804D00227384605B0BDE8F0830095BA
:10111000192301224F492046FFF71EFD002840F009
:10112000928094F83C30012B00F08F80012384F8EA
:101130003C3023681A6812F0010F03D11A6842F09C
:1011400001021A602268136823F4006313602123EC
:1011500084F83D30102384F83E3000232364C4F823
:101160002490A4F82A80638D23853B4BE3622B46B1
:10117000324639462046FFF77FFD0746002866D1F4
:101180000023039323685A6903929B690393039B8B
:1011900011E0236C042B01D00127B4E72268136807
:1011A00043F400731360F7E72A4631462046FFF701
:1011B00091FE00282ED1238D002B36D02A463146B1
:1011C0002046FFF7B3FD0028E3D1626A2368127856
:1011D0001A61616A4B1C6362638D9BB2013B9BB2D7
:1011E0006385238D013B9BB223852268506910F0F3
:1011F000040FD9D0002BD7D04B781361636A013329
:101200006362638D9BB2013B9BB26385238D013B7F
:101210002385C9E7236C042B01D0012773E72268DB
:10122000136843F400731360F7E72268136843F40C
:1012300000731360202384F83D30002384F83E308F
:1012400084F83C305FE702275DE702275BE7012770
:1012500059E700BF020010000000FFFF2DE9F04336
:1012600087B005460E4617469846FEF78FFF0023C7
:10127000059395F83D30DBB2202B40F0E1808146AC
:10128000734B1B68DB08734AA2FB03231B0A03EBA7
:10129000830303EB83030593059C013C0594059CA4
:1012A000002C51D02B689A6912F0020FF4D195F8F6
:1012B0003C20012A00F0C880012285F83C201A68F1
:1012C00012F0010F03D11A6842F001021A602A6875
:1012D000136823F400631360222385F83D30402314
:1012E00085F83E3000232B640E9B6B62BDF83C30CA
:1012F0006B856B8D9BB22B85574AEA62002B00F001
:101300008180AB6B002B2ED0544A9A62AB6B544A4F
:101310001A63AA6B0023D362AA6B536329682B8DCF
:101320006A6A1031A86BFEF7D7FF50B3202385F807
:101330003D30002285F83E202B6C43F010032B64D7
:1013400085F83C2001207CE000232B63202285F8D7
:101350003D2085F83E302A6C42F020022A6485F850
:101360003C3001206DE0202385F83D30002285F8D7
:101370003E202B6C43F080032B6485F83C20012039
:101380005FE0CDF804902323009343463A4631466C
:101390002846FFF7F5FCD8B92B8D012B2CD02A68F5
:1013A000536843F480535360002203922B685969B9
:1013B000039199690391039985F83C205A6842F496
:1013C00080725A602A68536843F40063536035E0C2
:1013D000A86BFEF7BBFFAA6B0023936229680A681B
:1013E00022F480620A602B856B852A68136823F0DB
:1013F00001031360012024E02A68136823F480634A
:101400001360D1E7CDF804902323009343463A4676
:1014100031462846FFF7B4FCC0B9002104912B687F
:101420005A6904929A690492049A1A6842F4007202
:101430001A60202385F83D3085F83C10002000E03C
:10144000022007B0BDE8F0830220FAE70120F8E7A8
:101450001400002089B5F8140000FFFFF5180008FB
:10146000BB18000870477047704708B590F83D30CA
:10147000DAB2438D9BB283B1416A0368097819617E
:10148000436A01334362438D9BB2013B9BB2438568
:10149000438D9BB20BB9292A00D008BD026853685E
:1014A00023F48063536021230363282380F83D30B5
:1014B000FFF7DAFFF1E7704708B590F83D30DAB290
:1014C000438D9BB283B103681969436A1970436AFB
:1014D00001334362438D9BB2013B9BB24385438DF5
:1014E0009BB20BB92A2A00D008BD0268536823F4C6
:1014F0008063536022230363282380F83D30FFF785
:10150000DAFFF1E7704700B583B090F83D3003F0A3
:101510002803282B0CD00023019302685169019104
:1015200092690192019A80F83C3003B05DF804FBA7
:101530000268536823F48063536011F0040F0BD0EA
:10154000002311F0800F09D18289002180F83C101E
:101550001946FFF7D7FFE8E70123F2E7028BF4E72C
:101560007047704708B5C26A90F83D30DBB2212B56
:1015700000D008BD438D9BB263B1426A0368127804
:101580001A61436A01334362438D9BB2013B9BB2B4
:101590004385EEE7082A04D0202A02D012F5803FC6
:1015A00019D10268536823F4E0635360026813683A
:1015B00043F40073136000230363202380F83D305D
:1015C00090F83E30DBB2402B15D0002380F83E303F
:1015D000FFF748FFCDE70268536823F4E0635360E8
:1015E00011230363002380F83E30202380F83D3030
:1015F000FFF738FFBDE7002380F83E30FFF7B1FF6B
:10160000B7E708B590F83D30026D9AB9C36C012B6D
:1016100008D0836CC3F3072302681361036D0133A1
:10162000036508BD836C0268DBB21361036D02338E
:101630000365F6E7DBB2026D012A23D0026D022AB0
:10164000EFD1222B26D0428D92B20AB1212B2AD083
:10165000428D92B2002AE4D1212BE2D10268536874
:1016600023F4E06353600268136843F4007313606B
:1016700000230363202280F83D2080F83E30FFF7EE
:1016800070FFCEE7836C0268DBB21361036D013338
:101690000365C6E70268136843F480731360036D43
:1016A00001330365BDE7426A036812781A61436A31
:1016B00001334362438D9BB2013B9BB24385B0E74C
:1016C00010B590F83D30DBB290F83E20D2B2C46A3B
:1016D000018D09B9212B04D0212B3BD0402A37D0D2
:1016E00010BD082C04D0202C02D014F5803F19D155
:1016F0000268536823F4E06353600268136843F49C
:101700000073136000230363202380F83D3090F8BA
:101710003E30DBB2402B15D0002380F83E30FFF77F
:10172000A1FEDDE70268536823F4E06353601123F0
:101730000363002380F83E30202380F83D30FFF71C
:1017400091FECDE7002380F83E30FFF70AFFC7E7A0
:10175000222BC5D1438D9BB22BB90268536823F469
:1017600080635360BCE790F83E30DBB2402B0CD076
:10177000426A036812781A61436A01334362438DF7
:101780009BB2013B9BB24385AAE7FFF73AFFA7E76D
:1017900008B5C26A438D9BB2042B14D0438D9BB213
:1017A000032B22D0438D9BB2022B39D003681A69D8
:1017B000436A1A70436A01334362438D9BB2013B13
:1017C0009BB2438510E00268536823F48063536042
:1017D00003681A69436A1A70436A01334362438D8E
:1017E0009BB2013B9BB2438508BD01684B6823F463
:1017F00080634B60042A06D0022A04D00268136872
:1018000023F48063136003681A69436A1A70436A99
:1018100001334362438D9BB2013B9BB24385E3E7B7
:10182000012A0BD0102A09D0042A38D0022A36D037
:101830000268136843F40073136004E002681368DD
:1018400023F48063136003681A69436A1A70426A5A
:10185000531C4362438D9BB2013B9BB2438503689B
:101860001B695370436A01334362438D9BB2013B52
:101870009BB243850268536823F44073536020236E
:1018800080F83D3090F83E30DBB2402B0DD0002385
:1018900080F83E3012230363FFF7E5FDA4E70268FA
:1018A000136843F480631360CDE7002380F83E3073
:1018B000036303F0EDFB97E7704708B5406A436B9D
:1018C0000BB100229A62836B0BB100229A6202680C
:1018D000136823F48063136000234385202280F87B
:1018E0003D2080F83E30036C43F010030364FFF7A3
:1018F000E3FF08BD38B5446A94F83D30DBB294F894
:101900003E20D1B2E56A2068426822F4407242600B
:10191000626B0AB100209062A26B0AB10020906253
:1019200003F02102212A41D003F02202222A3BD0D7
:1019300094F83E30002B49D0638D9BB2012B58D0D8
:101940002268536823F44073536015F5803F06D036
:10195000082D04D0B5F12A4F01D0202D04D12268E2
:10196000136843F4007313602268536823F48053B0
:1019700053602268536823F4006353600023638537
:10198000236C002B3BD1202384F83D3094F83E306B
:10199000DBB2402B37D0002384F83E301223236380
:1019A0002046FFF760FD11E02029C1D121684A6877
:1019B00022F400624A6000226285292B07D02A2B7C
:1019C0000ED02268536843F44073536038BD21231E
:1019D0002363282384F83D302046FFF745FDF0E7D8
:1019E00022232363282384F83D302046FFF763FD3C
:1019F000E7E72268136823F480631360A0E72046BA
:101A0000FFF75AFFE2E7002384F83E3023632046C5
:101A100003F03EFBDAE790F83D30DBB2222B00D03A
:101A2000704710B50446438D9BB2032B16D903684B
:101A30001A69436A1A70436A01334362438D9BB249
:101A4000013B9BB24385438D9BB2032B00D010BD5D
:101A50000268536823F480635360F8E7C26A022A7D
:101A6000F5D0012BF3D8FFF72BF800282ED12268F0
:101A7000136823F4806313602268536823F4E063DF
:101A8000536023681A69636A1A70636A0133636278
:101A9000638D9BB2013B9BB26385202384F83D306C
:101AA00094F83E30DBB2402B08D0002384F83E305F
:101AB000122323632046FFF7D6FCC8E7002384F8EF
:101AC0003E302363204603F0E3FAC0E72268536800
:101AD00023F4E063536023681A69636A1A70636AC7
:101AE00001336362638D9BB2013B9BB2638520230C
:101AF00084F83D30002384F83E302046FFF7DCFEBA
:101B0000A5E7704700B583B000230193406A90F8C1
:101B10003D20D2B2324B1B68DB083249A1FB0313D4
:101B20001B0A03EB8303C3EBC3030193019B43B184
:101B3000019B013B019303681B6813F4007FF5D1FF
:101B400003E0036C43F020030364436B0BB10021FB
:101B50009962836B0BB10021996201680B6823F4D1
:101B600080630B6000234385436B0BB100215963F5
:101B7000836B0BB10021596301680B6823F00103EB
:101B80000B6090F83D30DBB2602B0ED002F02802E3
:101B9000282A14D0202380F83D30002380F83E30DE
:101BA000FFF78AFE03B05DF804FB202380F83D3088
:101BB000002380F83E300364FFF7A3FFF2E70268DA
:101BC000136843F0010313600268136843F48063F1
:101BD000136000230363282380F83D30E0E700BF53
:101BE0001400002089B5F81410B5044690F83D3073
:101BF000DBB290F83E20D2B2102A35D0402A33D042
:101C000003F02802282A37D02268526812F4006FA5
:101C100007D1602B05D0202384F83D30002384F8C1
:101C20003E300023236323685A6812F4006F47D0C4
:101C30005A6822F400625A60636B93F82120012AEB
:101C400020D0444A5A63606BFEF780FB002849D0DD
:101C50002268136823F001031360202384F83D30C9
:101C6000606B436B98473DE0222BC9D121680A681D
:101C700022F400620A60C3E700232363282384F868
:101C80003D30D0E7A36B334A5A63A06BFEF75EFB8F
:101C900040B323685A6912F0400F05D01A69636A8D
:101CA0001A70636A013363622268136823F00103C8
:101CB0001360202384F83D30A06B436B984711E0FC
:101CC00094F83D20D2B2602A1FD05A6912F0400F1A
:101CD00005D01A69636A1A70636A01336362204629
:101CE000FFF7EAFD236C13F00F0F04D0226853684E
:101CF00023F4E063536094F83D30DBB2226C12F0C1
:101D0000040F01D0282B18D010BD202284F83D20CC
:101D1000002222645A6912F0400F05D01A69636AE2
:101D20001A70636A013363622268136823F0010347
:101D300013602046FFF7E5FED4E7074BE36200237C
:101D40002363202284F83D2084F83E302046FFF7AC
:101D500007FCD9E7051B00080000FFFF30B583B082
:101D6000044690F83D50EDB20268536823F4E063F6
:101D700053600023019303685A6901921A6842F084
:101D800001021A60019B0268136823F480631360E8
:101D900003685A6812F4006F38D0222D21D02A2D02
:101DA0001FD0426B1268526892B24285428D92B245
:101DB0001AB1026C42F0040202645A6822F4006212
:101DC0005A60606BFEF7B0FB01281FD0636B444A7A
:101DD0005A63606BFEF7BAFAC0B1606B436B984709
:101DE00014E0A26B1268526892B26285628D92B260
:101DF0001AB1226C42F0040222645A6822F4006292
:101E00005A60A06BFEF790FB012842D1638D9BB214
:101E100033B323685A6912F0040F0AD01A69636A4F
:101E20001A70636A01336362638D9BB2013B9BB29C
:101E3000638523685A6912F0400F0AD01A69636AF1
:101E40001A70636A01336362638D9BB2013B9BB27C
:101E50006385638D9BB21BB1236C43F00403236441
:101E6000236C13BB2A2D25D094F83D30DBB2282BF0
:101E700029D0236B222B01D0222D19D100232363DB
:101E8000202284F83D2084F83E302046FFF713FBE3
:101E90000EE0A36B124A5A63A06BFEF757FA0028B4
:101EA000B4D0A06B436B9847B0E72046FFF79CFE89
:101EB00003B030BD00232363282384F83D3020463F
:101EC000FFF7F9FAD0E7074BE362002323632022F0
:101ED00084F83D2084F83E302046FFF741FBE7E7D9
:101EE000051B00080000FFFFF8B5044602685568AE
:101EF000C66A90F83E30DBB290F83D10C8B2102BA5
:101F000013D0402B11D0236C002B7AD053690021C1
:101F100013F0020F78D015F4007F75D0236C03B155
:101F200091692046FFF7EFFAF8BDD2F818C0516961
:101F300011F0010705D1B6F52A0FF5D0B6F12A4FF9
:101F4000F2D017B115F4007F29D111F0080F02D09B
:101F500015F4007F2AD111F0020F02D015F4007F92
:101F600028D11CF0040F31D0526812F4006FDBD17D
:101F700011F0800F05D015F4806F02D011F0040F1E
:101F80001CD011F0040FCFD015F4007FCCD0212845
:101F900018D0402BC8D12046FFF733FBC4E72046BA
:101FA000FEF7CBFD2046FEF7F7FBBDE72046FEF728
:101FB00047FCB9E72046FEF758FCB5E72046FFF797
:101FC0007FFBB1E72046FFF7CDFAADE7536813F486
:101FD000006FA9D111F0400F05D015F4806F02D029
:101FE00011F0040F09D011F0040F9DD015F4007FFB
:101FF0009AD02046FFF7CCFB96E72046FFF70BFD73
:1020000092E79169536983E713F0100F02D015F43A
:10201000007F18D121281AD0292818D013F0400F9A
:1020200005D015F4806F02D013F0040F28D013F000
:10203000040F3FF479AF15F4007F3FF475AF2046ED
:10204000FEF72EFD70E72046FFF788FE6CE713F0E1
:10205000800F05D015F4806F02D013F0040F0BD061
:1020600013F0040F3FF460AF15F4007F3FF45CAF52
:102070002046FEF705FD57E72046FFF7F6F953E740
:102080002046FFF719FA4FE782B0084B1B68084A51
:10209000A2FB03235B0A00FB03F3019300BF019B38
:1020A0005A1E0192002BF9D102B070471400002093
:1020B000D34D6210002800F0F18170B582B0044663
:1020C000036813F0010F2CD0AA4B5B6803F00C03DC
:1020D000042B1DD0A74B5B6803F00C03082B12D018
:1020E0006368B3F5803F41D0002B55D103F18043A5
:1020F00003F504331A6822F480321A601A6822F455
:1021000080221A6037E09B4B5B6813F4803FE7D076
:10211000984B1B6813F4003F03D06368002B00F05A
:10212000BF81236813F0020F75D0924B5B6813F0E8
:102130000C0F5FD08F4B5B6803F00C03082B54D05F
:102140002369002B00F089808B4B01221A60FEF777
:102150001DF80546874B1B6813F0020F74D1FEF77C
:1021600015F8401B0228F5D903209EE1814A136827
:1021700043F480331360636843B3FEF707F8054602
:102180007C4B1B6813F4003FCBD1FDF7FFFF401BD6
:102190006428F5D9032088E1B3F5A02F09D0754B49
:1021A0001A6822F480321A601A6822F480221A60B7
:1021B000E1E703F18043A3F53C331A6842F480223F
:1021C0001A601A6842F480321A60D4E7FDF7DEFF25
:1021D0000546684B1B6813F4003FA2D0FDF7D6FFFD
:1021E000401B6428F5D903205FE1624B5B6813F460
:1021F000803FA5D15F4B1B6813F0020F03D023690A
:10220000012B40F04F815B4A136823F0F8036169AA
:1022100043EAC1031360236813F0080F32D0A369A7
:10222000002B45D0554B01221A60FDF7AFFF054644
:10223000504B5B6A13F0020F21D1FDF7A7FF401B43
:102240000228F5D9032030E14A4A136823F0F80345
:10225000616943EAC1031360DDE7474B00221A605E
:10226000FDF794FF0546434B1B6813F0020FD2D0D5
:10227000FDF78CFF401B0228F5D9032015E1012052
:10228000FFF702FF236813F0040F00F09780394B2B
:10229000DB6913F0805F1DD1364BDA6942F0805262
:1022A000DA61DB6903F080530193019B012512E0A1
:1022B000324B00221A60FDF769FF05462D4B5B6A21
:1022C00013F0020FDED0FDF761FF401B0228F5D9A5
:1022D0000320EAE000252A4B1B6813F4807F11D00D
:1022E000E368012B22D0002B38D103F1804303F5A2
:1022F00004331A6A22F001021A621A6A22F00402F6
:102300001A6218E01E4A136843F480731360FDF7E5
:102310003DFF06461A4B1B6813F4807FE0D1FDF7A2
:1023200035FF801B6428F5D90320BEE0114A136AEB
:1023300043F001031362E36873B3FDF727FF06461A
:102340000C4B1B6A13F0020F37D1FDF71FFF801BE8
:1023500041F288339842F3D90320A6E0052B11D02F
:10236000044B1A6A22F001021A621A6A22F004026D
:102370001A62E0E70010024000004242800442423C
:10238000007000404D4B1A6A42F004021A621A6A49
:1023900042F001021A62CEE7FDF7F8FE0646474B0F
:1023A0001B6A13F0020F08D0FDF7F0FE801B41F20C
:1023B00088339842F3D9032077E0E5B9E369002B2D
:1023C00072D03E4A526802F00C02082A56D0022B04
:1023D00017D03B4B00221A60FDF7D8FE0446374B5E
:1023E0001B6813F0007F47D0FDF7D0FE001B0228CA
:1023F000F5D9032059E0314AD36923F08053D361E2
:10240000DCE72F4B00221A60FDF7C0FE05462B4B80
:102410001B6813F0007F06D0FDF7B8FE401B0228B2
:10242000F5D9032041E0236AB3F5803F1AD0234950
:102430004B6823F47413226A606A024313434B60AF
:102440001F4B01221A60FDF7A1FE04461B4B1B68BF
:1024500013F0007F0ED1FDF799FE001B0228F5D97D
:10246000032022E0154A536823F40033A1680B438C
:102470005360DCE7002018E0002016E0012B16D0A6
:102480000E4B5B6803F48031226A914211D103F450
:102490007013626A93420ED1002006E0012070475B
:1024A000012002E0012000E0002002B070BD012008
:1024B000FBE70120F9E70120F7E700BF0010024029
:1024C0006000424286B0164B0FCB0DF1180C0CE9A0
:1024D0000F0040F20123ADF80430124B5B6803F0AB
:1024E0000C02082A02D0104806B07047C3F383429A
:1024F000624412F8102C13F4803F0CD0094B5B6837
:10250000C3F34043634413F8143C074800FB02F054
:10251000B0FBF3F0E8E7054800FB02F0E4E700BF9A
:10252000186B00080010024000127A0000093D00FC
:10253000002800F0A08070B50D460446524B1B6881
:1025400003F007038B420BD24F4A136823F00703B3
:102550000B431360136803F007038B4240F08D8038
:10256000236813F0020F17D013F0040F04D0474A6A
:10257000536843F4E0635360236813F0080F04D0FA
:10258000424A536843F460535360404A536823F00F
:10259000F003A1680B435360236813F0010F31D09F
:1025A0006368012B20D0022B25D0384A126812F024
:1025B000020F64D035494A6822F0030213434B608E
:1025C000FDF7E4FD0646314B5B6803F00C036268DF
:1025D000B3EB820F16D0FDF7D9FD801B41F2883393
:1025E0009842F0D9032045E0284A126812F4003FCF
:1025F000E0D101203EE0254A126812F0007FD9D1D7
:10260000012037E0204B1B6803F00703AB420AD9D7
:102610001D4A136823F007032B431360136803F06C
:102620000703AB422DD1236813F0040F06D0174ADD
:10263000536823F4E063E1680B435360236813F0AD
:10264000080F07D0114A536823F46053216943EA05
:10265000C1035360FFF736FF0C4B5B68C3F30313F2
:102660000B4AD35CD8400B4B18600B4B186803F037
:1026700095FA002070BD012070470120FAE7012083
:10268000F8E70120F6E700BF0020024000100240FA
:10269000006B00081400002004000020014B1868A3
:1026A000704700BF1400002008B5FFF7F7FF044B88
:1026B0005B68C3F30223034AD35CD84008BD00BF64
:1026C00000100240106B000808B5FFF7E7FF044B4D
:1026D0005B68C3F3C223034AD35CD84008BD00BF84
:1026E00000100240106B00080F2303600B4B5A6868
:1026F00002F0030242605A6802F0F00282605A68F7
:1027000002F4E062C2605B68DB0803F4E06303612B
:10271000034B1B6803F007030B6070470010024077
:102720000020024030B4036A056A25F00105056205
:10273000846924F0F00444EA021423F00A030B43F2
:102740008461036230BC704730B4056A25F010051F
:1027500005628469036A24F4704444EA023423F075
:10276000A00343EA01138461036230BC70478368AD
:1027700023F070030B4343F00703836070470000AE
:1027800090F83D30DBB2012B27D1022380F83D3099
:102790000268D36843F00103D3600368114A93428F
:1027A00010D0B3F1804F0DD0A2F59432934209D0EE
:1027B00002F58062934205D01A6842F001021A6065
:1027C000002070479A6802F00702062A07D01A68AC
:1027D00042F001021A60002070470120704700207B
:1027E000704700BF002C014070477047704770472A
:1027F00010B5044603681A6912F0020F11D0DA68A6
:1028000012F0020F0DD06FF002021A61012303775C
:1028100003689B6913F0030F70D0FFF7E6FF0023F6
:10282000237723681A6912F0040F12D0DA6812F0C5
:10283000040F0ED06FF004021A610223237723687D
:102840009B6913F4407F5FD02046FFF7CEFF002343
:10285000237723681A6912F0080F12D0DA6812F091
:10286000080F0ED06FF008021A6104232377236843
:10287000DB6913F0030F4ED02046FFF7B6FF0023AD
:10288000237723681A6912F0100F12D0DA6812F059
:10289000100F0ED06FF010021A61082323772368FF
:1028A000DB6913F4407F3DD02046FFF79EFF0023F5
:1028B000237723681A6912F0010F03D0DA6812F047
:1028C000010F36D123681A6912F0800F03D0DA683D
:1028D00012F0800F34D123681A6912F0400F03D030
:1028E000DA6812F0400F32D123681A6912F0200F13
:1028F00003D0DA6812F0200F30D110BDFFF774FF5B
:102900002046FFF773FF8AE72046FFF76DFF20465A
:10291000FFF76CFF9BE72046FFF766FF2046FFF7B7
:1029200065FFACE72046FFF75FFF2046FFF75EFF3D
:10293000BDE76FF001021A61204602F0B5FBC1E766
:102940006FF080021A61204600F023F9C3E76FF0B0
:1029500040021A612046FFF74AFFC5E76FF02002E8
:102960001A61204600F014F9C7E7000003681B4A0B
:1029700090420AD0B0F1804F07D0A2F59432904235
:1029800003D002F58062904203D123F070034A68BD
:102990001343124A90420AD0B0F1804F07D0A2F5FB
:1029A0009432904203D002F58062904203D123F426
:1029B0004073CA68134323F080034A6913430360DA
:1029C0008B68C3620B688362044B984202D0012378
:1029D000436170470B690363F9E700BF002C0140B6
:1029E00040B310B5044690F83D30F3B1022384F8AB
:1029F0003D30214651F8040BFFF7B8FF012384F85E
:102A0000463084F83E3084F83F3084F8403084F813
:102A1000413084F8423084F8433084F8443084F8FC
:102A2000453084F83D30002010BD80F83C3003F084
:102A300065F8DBE70120704710B4846824F47F4414
:102A400042EA03220A432243826010BC704790F896
:102A50003C30012B66D010B50446012380F83C3091
:102A6000022380F83D300268936823F47F4323F00B
:102A7000770393600B68602B40D022D8402B47D05F
:102A80000BD9502B0ED1CA6849680068FFF74AFE7F
:102A900050212068FFF76BFE04E0202B0CD008D9F2
:102AA000302B09D0012384F83D30002084F83C000D
:102AB00010BD0BB1102BF5D119462068FFF757FE5A
:102AC000F0E7702B0ED0B3F5005FEBD1CB684A680E
:102AD00089680068FFF7B0FF2268936843F4804379
:102AE0009360DFE7CB684A6889680068FFF7A4FF56
:102AF0002268936843F077039360D3E7CA68496814
:102B00000068FFF721FE60212068FFF730FEC9E76B
:102B1000CA6849680068FFF705FE40212068FFF792
:102B200026FEBFE70220704790F83C30012B2BD0E7
:102B300030B4012380F83C30022380F83D30036834
:102B40005C689D6824F070040A6822435A60036838
:102B50000E4A93420AD0B3F1804F07D0A2F59432C7
:102B6000934203D002F58062934204D125F08005A0
:102B70004A6815439D60012380F83D30002380F8AA
:102B80003C30184630BC704702207047002C014092
:102B900070477047842801D0033070470020704789
:102BA00008B500F09BFE002008BD2DE9F04387B07A
:102BB00004460F464569BDB18669AEB1D0F80480C0
:102BC000D0F80090B0F90800FFF7E4FF02960195F5
:102BD00000903B4622694946404600F011FE0590B0
:102BE000059807B0BDE8F08365682668D4F81080C2
:102BF000B4F90800FFF7CEFF05AB019300903B4608
:102C00001FFA88F23146284600F033FE0128E7D04B
:102C10000020E6E708B500B9012000F099FF002088
:102C200008BD10B582B044687CB1012903D00024EE
:102C3000204602B010BD0323009323460022114614
:102C4000012000F065F90446F2E70129F0D10322E2
:102C50000021012000F0A5F904460028E8D0002357
:102C60001A46194600F0C4F9E2E700B583B082685D
:102C700042B1C36833B1002100914168006800F09F
:102C800047F904E000224168006800F08AF903B0C7
:102C90005DF804FB00F1080343604FF0FF328260EF
:102CA000C360036100230360704700230361704722
:102CB00043684B609A688A60516099600861036854
:102CC00001330360704730B40D68B5F1FF3F11D098
:102CD00000F108031C465B681A68AA42FAD96368C7
:102CE0004B6099608C606160086103680133036028
:102CF00030BC70470469F2E70369416882688A6002
:102D0000416851605A68824206D0002202611A6806
:102D1000013A1A601868704782685A60F5E70346FE
:102D2000406A18B11B6B1868C0F10700704710B5F6
:102D3000044601F0C7F9A26BE36B9A4204D0002469
:102D400001F0E2F9204610BD0124F9E710B5044670
:102D500001F0B8F9A36B23B9012401F0D5F920469D
:102D600010BD0024F9E770B504461546866B026C69
:102D70005AB903681BB100200136A66370BD4068D4
:102D800001F07AF800236360F6E76DB9806803F01C
:102D90006BFE226CA3681344A3606268934219D34C
:102DA0002368A3602846E7E7C06803F05DFE226C55
:102DB0005142E3689B1AE3602268934202D263683F
:102DC0000B44E360022D01D00020D5E726B1013E7F
:102DD0000020D1E72846CFE70020CDE70346026C6C
:102DE0006AB110B50846D9681144D9605C68A1423F
:102DF00001D31968D960D96803F036FE10BD704759
:102E000038B5054601F05EF995F8454064B203E037
:102E100000F0B4FF013C64B2002C08DD6B6A33B1F2
:102E200005F1240000F01CFF0028F3D0F0E7FF2399
:102E300085F8453001F068F901F044F995F844400F
:102E400064B203E000F09AFF013C64B2002C08DD9C
:102E50002B6933B105F1100000F002FF0028F3D018
:102E6000F0E7FF2385F8443001F04EF938BD00004B
:102E700038B5E0B10D46044601F024F92168E26B53
:102E8000236C03FB021060600020A063A160013A84
:102E900002FB0313E360FF2384F8443084F84530D9
:102EA000EDB9236963B901F02FF9012038BD4FF066
:102EB000500383F31188BFF36F8FBFF34F8FFEE78B
:102EC00004F1100000F0CCFE0028ECD0084B4FF0CD
:102ED00080521A60BFF34F8FBFF36F8FE3E704F1A7
:102EE0001000FFF7D7FE04F12400FFF7D3FEDAE766
:102EF00004ED00E010B5034602980C4631B90060BD
:102F0000C36304640121FFF7B3FF10BD0260F7E75C
:102F100040B94FF0500383F31188BFF36F8FBFF3B5
:102F20004F8FFEE730B585B01C46054653B192B1D0
:102F300089B94FF0500383F31188BFF36F8FBFF34C
:102F40004F8FFEE74FF0500383F31188BFF36F8F6D
:102F5000BFF34F8FFEE76AB148230393039B482BCF
:102F600013D04FF0500383F31188BFF36F8FBFF37B
:102F70004F8FFEE70029EFD04FF0500383F3118805
:102F8000BFF36F8FBFF34F8FFEE7012384F8463006
:102F900000949DF820302846FFF7ACFF204605B08E
:102FA00030BD40B94FF0500383F31188BFF36F8FEA
:102FB000BFF34F8FFEE7F0B583B00C4616460746C9
:102FC000A1B101FB00F0483001F0E2F9054650B133
:102FD000002380F846300090334600F14802214635
:102FE0003846FFF787FF284603B0F0BD0846EAE7FA
:102FF000F0B585B0019288B10E461D460446B1B1C8
:10300000022D20D1E36B012B1DD04FF0500383F331
:103010001188BFF36F8FBFF34F8FFEE74FF0500360
:1030200083F31188BFF36F8FBFF34F8FFEE7036CFD
:10303000002BE5D04FF0500383F31188BFF36F8F5F
:10304000BFF34F8FFEE700F0A1FE074658B9019B82
:10305000002B44D04FF0500383F31188BFF36F8FE0
:10306000BFF34F8FFEE7002739E02A46314620465E
:10307000FFF779FE626A6AB938B13C4B4FF0805273
:103080001A60BFF34F8FBFF36F8F01F03DF801203F
:1030900005B0F0BD04F1240000F0E2FD0028F4D0FA
:1030A000324B4FF080521A60BFF34F8FBFF36F8FD8
:1030B000EBE701F029F80020EAE702A800F012FE91
:1030C000012719E0002384F8443021E0002384F82C
:1030D000453023E02046FFF793FE00F0C1FC00F0EE
:1030E000F1FFA26BE36B9A42BFD3022DBDD0019BCF
:1030F000002BDED0002FE0D001F006F800F020FC1D
:1031000000F0E0FF94F844305BB2B3F1FF3FD9D058
:1031100094F845305BB2B3F1FF3FD7D000F0F4FF35
:1031200001A902A800F0E8FDC8B92046FFF7FFFD9D
:103130000028CFD0019904F1100000F077FD20465F
:10314000FFF75EFE00F08CFC0028C8D1074B4FF063
:1031500080521A60BFF34F8FBFF36F8FBFE72046D7
:10316000FFF74EFE00F07CFC002091E704ED00E04C
:1031700068B170B50E460446036C8BB14FF0500336
:1031800083F31188BFF36F8FBFF34F8FFEE74FF0CC
:10319000500383F31188BFF36F8FBFF34F8FFEE7A8
:1031A0000368EBB101F07AF8EFF311854FF05003AB
:1031B00083F31188BFF36F8FBFF34F8FA26BE36B65
:1031C000934226D994F845305BB20132A263B3F141
:1031D000FF3F11D001335BB284F84530012019E084
:1031E0004368002BDED04FF0500383F31188BFF308
:1031F0006F8FBFF34F8FFEE7636A0BB9012009E0C1
:1032000004F1240000F02CFD38B146B101203060FB
:1032100000E0002085F3118870BD0120FAE701204D
:10322000F8E70000F0B585B0019290B10E46044673
:10323000C1B100F0ABFD074600BB019B002B5CD089
:103240004FF0500383F31188BFF36F8FBFF34F8F9D
:10325000FEE74FF0500383F31188BFF36F8FBFF386
:103260004F8FFEE7036C002BE3D04FF0500383F346
:103270001188BFF36F8FBFF34F8FFEE700273CE04D
:1032800031462046FFF7AAFD013DA563236923B916
:1032900000F03AFF012005B0F0BD04F1100000F08D
:1032A000DFFC0028F4D0354B4FF080521A60BFF39A
:1032B0004F8FBFF36F8FEBE700F026FF0020EAE7A8
:1032C00002A800F00FFD012721E0002384F844301C
:1032D00029E0002384F845302BE02046FFF790FDDD
:1032E00000F0BEFB09E02046FFF78AFD00F0B8FBC6
:1032F0002046FFF72BFD00283DD100F0E3FEA56B33
:10330000002DBDD1019B002BD6D0002FD8D000F0CE
:10331000FBFE00F015FB00F0D5FE94F844305BB2E4
:10332000B3F1FF3FD1D094F845305BB2B3F1FF3F2A
:10333000CFD000F0E9FE01A902A800F0DDFC0028D2
:10334000D1D12046FFF702FD0028C6D0019904F133
:10335000240000F06BFC2046FFF752FD00F080FBDC
:103360000028CAD1054B4FF080521A60BFF34F8F2F
:10337000BFF36F8FC1E700208DE700BF04ED00E0D1
:1033800070B584B0019158B10446036C8BB14FF015
:10339000500383F31188BFF36F8FBFF34F8FFEE7A6
:1033A0004FF0500383F31188BFF36F8FBFF34F8F3C
:1033B000FEE700F0EBFC064650B9019B5BB14FF015
:1033C000500383F31188BFF36F8FBFF34F8FFEE776
:1033D00000252E4653E0054651E0013BA3632368D8
:1033E0003BB123694BB900F08FFE0125284604B09C
:1033F00070BD00F003FE6060F3E704F1100000F020
:103400002FFC0028EFD0464B4FF080521A60BFF3DC
:103410004F8FBFF36F8FE6E745B14FF0500383F353
:103420001188BFF36F8FBFF34F8FFEE700F06CFE84
:10343000DCE702A800F056FC01262AE0002384F80D
:10344000443032E0002384F8453034E000F03AFEA6
:10345000606800F0ABFC054600F056FE3BE02046FD
:10346000FFF7CEFC00F0FCFA09E02046FFF7C8FCAD
:1034700000F0F6FA2046FFF769FC002840D100F082
:1034800021FEA36B002BA8D1019B002BC4D0002EE2
:10349000CFD000F039FE00F053FA00F013FE94F89C
:1034A00044305BB2B3F1FF3FC8D094F845305BB213
:1034B000B3F1FF3FC6D000F027FE01A902A800F03B
:1034C0001BFC0028D1D12046FFF740FC0028C6D0C5
:1034D0002368002BBAD0019904F1240000F0A6FB68
:1034E0002046FFF78DFC00F0BBFA0028C7D10C4B3B
:1034F0004FF080521A60BFF34F8FBFF36F8FBEE75C
:103500000DB9002572E700F0DDFD2046FFF707FC4E
:103510000146606800F00CFD00F0F6FDF1E700BF29
:1035200004ED00E0074B9B6A1B6823B9054B4FF085
:10353000FF32DA627047034B9A6AD268D2685268E7
:10354000DA627047340000202DE9F04707469846BC
:10355000089DDDF824900A9C266B02F18042013A16
:1035600006EB820626F0070600220F2A07D8885CA1
:10357000A31883F834008B5C0BB10132F5E700230C
:1035800084F84330062D00D90625E56265644FF0C6
:10359000000AC4F848A0201DFFF787FB04F11800BB
:1035A000FFF783FB2461C5F10705A5616462C4F8D8
:1035B0004CA084F850A042463946304600F05EFDEB
:1035C0002060B9F1000F01D0C9F80040BDE8F087D4
:1035D00070B5002407E004EB8402930010481844FF
:1035E000FFF758FB0134062CF5D90E4C04F1BC064C
:1035F0003046FFF74FFB04F1D0052846FFF74AFBA2
:1036000004F11400FFF746FB04F1E400FFF742FB6E
:103610002046FFF73FFBA662C4F8F85070BD00BF1C
:10362000640000203400002038B5054600F04AFD53
:10363000264BD3F8FC200132C3F8FC20D3F800312C
:1036400073B1224BD3F804318BB9204BD3F800313E
:10365000DA6AEB6A9A420AD81C4BC3F8005106E0BA
:103660001A4BC3F80051D3F8FC30012B2AD0174C69
:10367000D4F808310133C4F80831EB6A01229A40CA
:10368000D4F80C110A43C4F80C2104F1300003EB08
:103690008303291D00EB8300FFF70AFB00F034FDD4
:1036A000D4F804316BB1D4F80031DA6AEB6A9A428B
:1036B00007D2074B4FF080521A60BFF34F8FBFF312
:1036C0006F8F38BDFFF784FFD1E700BF34000020C3
:1036D00004ED00E010B5044690F8513063B1012BC1
:1036E00011D0022B0ED04FF0500383F31188BFF39B
:1036F0006F8FBFF34F8FFEE7006B00F0B7FE2046E1
:1037000000F0B4FE10BD00F0B1FEFBE738B50F4B82
:10371000D3F81031C3B100F0D5FC0C4CD4F8F03024
:10372000DD68281DFFF7E8FAD4F8FC30013BC4F847
:10373000FC30D4F81031013BC4F8103100F0E4FC47
:103740002846FFF7C7FFE2E738BD00BF340000207E
:1037500008B5FFF7DBFF064B1B6B012BF9D9054BB7
:103760004FF080521A60BFF34F8FBFF36F8FF0E7B7
:103770003400002004ED00E070B504460D461F4BF8
:10378000D3F81461D3F800010430FFF7B5FA60B93B
:103790001A4BD3F80021D16A012202FA01F1D3F8C1
:1037A0000C2122EA0102C3F80C21B4F1FF3F0FD033
:1037B0003444124BD3F800315C60A64211D90F4B50
:1037C000D3F8F800D3F800110431FFF77CFA70BD8C
:1037D000002DEDD00948D0F800110431FFF768FA48
:1037E000F5E7064DA86AD5F800110431FFF76BFA2A
:1037F000EB6AA342EBD9EC62E9E700BF340000209A
:1038000070B586B00B9D0C9C75B1B4B1542604966E
:10381000049E542E1AD04FF0500383F31188BFF347
:103820006F8FBFF34F8FFEE74FF0500383F3118884
:10383000BFF36F8FBFF34F8FFEE74FF0500383F35B
:103840001188BFF36F8FBFF34F8FFEE7256302250B
:1038500084F8515000250395029405AD01950A9D09
:103860000095FFF771FE2046FFF7DEFE059806B0D3
:1038700070BD2DE9F04385B00746884614461E46C4
:10388000900000F085FD00B38146542000F080FDDB
:103890000546B0B1C0F83090E5B1002385F851304D
:1038A000039302950D9B01930C9B00933346224694
:1038B00041463846FFF748FE2846FFF7B5FE01208F
:1038C00005E0484600F0D2FDE6E74FF0FF3005B0D6
:1038D000BDE8F0834FF0FF30F9E7000010B588B085
:1038E00000240594069407AA06A905A801F016F974
:1038F000059B0293069B019300942346079A0D496A
:103900000D48FFF77DFF90B14FF0500383F311880E
:10391000BFF36F8FBFF34F8F084B4FF0FF32DA6268
:103920000122C3F80421C3F8144100F05DFC08B083
:1039300010BD00BF2C6B0008513700083400002078
:10394000034AD2F818310133C2F81831704700BF6A
:10395000340000202DE9F041404BD3F81831002B02
:103960006CD13E4BD3F814510135C3F81451CDB985
:103970009B6A1B6843B14FF0500383F31188BFF378
:103980006F8FBFF34F8FFEE7344B9A6AD3F8F8106E
:103990009962C3F8F820D3F81C210132C3F81C2126
:1039A000FFF7C0FD2D4BDB6AAB423DD900242B4A0B
:1039B000D2F80031DB6A03EB830399000A44136BEE
:1039C000012B42D9012440E00124244B9B6A1B684F
:1039D00063B3224B9B6ADB68DE6873689D422AD31F
:1039E00006F104084046FFF787F9B36A1BB106F1F8
:1039F0001800FFF781F9F36A01229A40174FD7F8B0
:103A00000C110A43C7F80C2107F1300003EB8303C4
:103A10009A0041461044FFF74BF9F26AD7F800319B
:103A2000DB6A9A42D0D2D0E70024CEE70B4B4FF0AE
:103A3000FF32DA62BBE7094AD362B8E7074AD2F835
:103A400020310133C2F820310024044BD3F8243153
:103A500003B101242046BDE8F08100BF34000020FE
:103A6000394BD3F8183143B94FF0500383F3118821
:103A7000BFF36F8FBFF34F8FFEE770B500F022FBEF
:103A8000314BD3F81821013AC3F81821D3F8183173
:103A9000002B54D12C4BD3F8FC300BB900244FE051
:103AA0000024294B5B692BB3274D2B6ADC6804F19A
:103AB0001800FFF721F9261D3046FFF71DF9E36ACC
:103AC00001229A40D5F80C110A43C5F80C2105F1E2
:103AD000300003EB8303314600EB8300FFF7E8F887
:103AE000E26AD5F80031DB6A9A42DAD30122C5F8DE
:103AF0002421D6E70CB1FFF715FD134BD3F8204175
:103B00007CB9114BD3F82441D4B1104B4FF0805203
:103B10001A60BFF34F8FBFF36F8F012410E0013C99
:103B200008D0FFF717FF0028F9D0074B0122C3F890
:103B30002421F4E7044B0022C3F82021E1E700240C
:103B400000F0E2FA204670BD3400002004ED00E0F1
:103B500010B5B0B104460F4BD3F8183143B14FF054
:103B6000500383F31188BFF36F8FBFF34F8FFEE7CE
:103B7000FFF7E6FE00212046FFF7FEFDFFF770FF8E
:103B800038B9054B4FF080521A60BFF34F8FBFF327
:103B90006F8F10BD3400002004ED00E0224BD3F8FD
:103BA000183123B1204B0122C3F8242170471E4A4B
:103BB0000023C2F82431D2F80C31B3FA83F3DBB21C
:103BC000C3F11F0303EB830081000A44126B42B967
:103BD0004FF0500383F31188BFF36F8FBFF34F8F04
:103BE000FEE710B4104A03EB830081001144486BD8
:103BF00040684863303203EB8304A1000C4608316F
:103C00000A4490420AD0084903EB83039A000A440D
:103C1000536BDB68C1F8003110BC70474068024A42
:103C200022445063EFE700BF3400002060B110B5BC
:103C30000C460A4BD3F800111831FFF744F8012164
:103C40002046FFF799FD10BD4FF0500383F3118814
:103C5000BFF36F8FBFF34F8FFEE700BF340000202C
:103C600038B5C368DC684CB304F118052846FFF783
:103C700043F81A4BD3F818314BBB251D2846FFF7E4
:103C80003BF8E06A01228240144BD3F80C110A433E
:103C9000C3F80C21303300EB8000294603EB800091
:103CA000FFF706F8E26A0D4BD3F80031DB6A9A425F
:103CB00012D90120094BC3F824010EE04FF0500344
:103CC00083F31188BFF36F8FBFF34F8FFEE7294651
:103CD0000348FEF7EDFFE5E7002038BD3400002083
:103CE00048000020034BD3F81C210260D3F81431A4
:103CF0004360704734000020F8B5D8B10C46054643
:103D000009B300F0DFF91C4BD3F814116B68C81A23
:103D10002268B2F1FF3F27D02F68174ED6F81C61FA
:103D2000B74201D08B4224D9824215D800232360A8
:103D300001241AE04FF0500383F31188BFF36F8F13
:103D4000BFF34F8FFEE74FF0500383F31188BFF3AB
:103D50006F8FBFF34F8FFEE75B1A13442360284633
:103D6000FFF7C0FF002400E0002400F0CDF920465A
:103D7000F8BD0124F9E700BF34000020024B012206
:103D8000C3F82421704700BF34000020064BD3F84D
:103D900004313BB1044BD3F818310BB1002070470C
:103DA00002207047012070473400002000285AD0BC
:103DB00038B50446C36A2E4AD2F80021D26A93422B
:103DC00048D28269002A06DB294AD2F80021D26A49
:103DD000C2F107028261616903EB8303254A02EBAA
:103DE0008303994206D0224BD3F80031DB6AE362A9
:103DF000012038BD251D2846FEF77EFFB0B11C48C6
:103E0000D0F80031DB6AE362012404FA03F2D0F84F
:103E10000C110A43C0F80C21303003EB8303294610
:103E200000EB8300FEF744FF2046E2E7E26A02EB84
:103E300082010F4B03EB81031B6B002BDFD10123AE
:103E400003FA02F20A49D1F80C3123EA0203C1F85D
:103E50000C31D4E7426C064BD3F80031DB6A9A424E
:103E600003D30020C5E7002070470120C1E700BF51
:103E70003400002064000020002852D038B50446E9
:103E80002A4BD3F80031834208D04FF0500383F31C
:103E90001188BFF36F8FBFF34F8FFEE7836C43B979
:103EA0004FF0500383F31188BFF36F8FBFF34F8F31
:103EB000FEE7013B8364C16A426C914233D00BB18F
:103EC000002038BD051D2846FEF716FF88B9E26AB6
:103ED00002EB8201154B03EB81031B6B4BB90123F2
:103EE00003FA02F21149D1F80C3123EA0203C1F8B6
:103EF0000C31636CE362C3F10702A261012404FA8E
:103F000003F10A4AD2F80C010143C2F80C11303215
:103F100003EB8303294602EB8300FEF7C9FE20462C
:103F2000CFE7002070470020CBE700BF340000201F
:103F300000285DD038B50A460446816C41B94FF07F
:103F4000500383F31188BFF36F8FBFF34F8FFEE7EA
:103F5000436C934200D21346E26A9A4201D001298F
:103F600000D038BD2349D1F80011A14237D0E36217
:103F7000A169002902DBC3F10703A361616902EBB8
:103F800082021D4B03EB82029142EAD1251D284695
:103F9000FEF7B2FE88B9E26A02EB8201154B03EB31
:103FA00081031B6B4BB9012303FA02F21149D1F8CB
:103FB0000C3123EA0203C1F80C31E06A012282408D
:103FC0000C4BD3F80C110A43C3F80C21303300EB2F
:103FD0008000294603EB8000FEF76AFEC1E74FF040
:103FE000500383F31188BFF36F8FBFF34F8FFEE74A
:103FF000704700BF3400002064000020064BD3F857
:1040000000312BB1044BD3F80021936C013393643E
:10401000014BD3F8000170473400002082B0002328
:1040200001930D4B1B68B3F1FF3F08D04FF05003D5
:1040300083F31188BFF36F8FBFF34F8FFEE74FF00D
:10404000500383F31188BFF36F8FBFF34F8F019B32
:10405000002BFCD002B07047080000200648006822
:10406000006880F3088862B661B6BFF34F8FBFF374
:104070006F8F00DF00BF000008ED00E04FF080739D
:1040800040F8043C21F0010140F8081C034B40F8C3
:104090000C3C40F8202C4038704700BF1D40000801
:1040A000074B19680868B0E8F00F80F30988BFF380
:1040B0006F8F4FF0000080F311884EF00D0E7047A7
:1040C000340100204FF0500383F31188BFF36F8F4A
:1040D000BFF34F8F0A4A136801331360012B00D0DE
:1040E0007047084B1B6813F0FF0FF9D04FF05003D7
:1040F00083F31188BFF36F8FBFF34F8FFEE700BFCD
:104100000800002004ED00E0094B1B6843B94FF0A4
:10411000500383F31188BFF36F8FBFF34F8FFEE718
:10412000013B034A13600BB983F31188704700BF4A
:104130000800002000000000000000000000000057
:10414000EFF30980BFF36F8F0D4B1A6820E9F00F72
:1041500010602DE908404FF0500080F31188FFF700
:104160001DFD4FF0000080F31188BDE8084019687C
:104170000868B0E8F00F80F30988BFF36F8F7047CD
:104180003401002008B54FF0500383F31188BFF3CA
:104190006F8FBFF34F8FFFF7DDFB18B1034B4FF06D
:1041A00080521A60002383F3118808BD04ED00E0FB
:1041B000084A0023136008490B60084B1B68084934
:1041C000A1FB03139B09013B06490B600723136006
:1041D000704700BF10E000E018E000E0140000208D
:1041E000D34D621014E000E010B582B0274B1A786E
:1041F000D2B20192FF221A701B78DBB28DF8033025
:104200009DF8033003F05003214A137007235360D5
:104210009DF8033013F0800F0AD01D4A5368013B0C
:1042200053609DF803305B00DBB28DF80330EFE79D
:10423000174B5B68032B08D04FF0500383F31188B2
:10424000BFF36F8FBFF34F8FFEE71B0203F4E063F2
:104250000F4A5360019BDBB20C4A13700D4B1A6876
:1042600042F470021A601A6842F070421A60FFF756
:104270009FFF0024084B1C60FFF7F0FEFFF78EFC49
:10428000FFF7CCFE204602B010BD00BF00E400E006
:104290005C01002020ED00E008000020EFF3058322
:1042A0000F2B0FD9104A9B5CDBB2104A12789A424E
:1042B00008D94FF0500383F31188BFF36F8FBFF31A
:1042C0004F8FFEE70A4B1B6803F4E063074A52680E
:1042D000934208D94FF0500383F31188BFF36F8FD7
:1042E000BFF34F8FFEE77047F0E300E05C01002072
:1042F0000CED00E0104A12F0070F1AD0D11D21F08A
:104300000701C1F5005313440A460C490A60002016
:1043100048601344083B23F007038B605860186023
:10432000981A50601360C86008614FF000434B61F9
:1043300070474FF40053E8E77C010020640100203F
:1043400010B4124B1A461B688342FBD351685418B1
:10435000844209D041684418A3420AD003609042C5
:1043600000D0106010BC7047406801445160104696
:10437000F0E7064CA468A34206D05B68194441608C
:1043800013681B680360EAE70460E8E76401002043
:1043900070B50446FFF7D4FA334B9B68A3B1324B98
:1043A0005B691C4249D134B1083414F0070F02D0C4
:1043B00024F007040834002C41D02B4B1B69A34286
:1043C0004CD3294B1D6804E0FFF794FFE7E72B4629
:1043D00015466A68A24202D22A68002AF7D1224A08
:1043E0009268AA423CD01E6808362A681A606B6838
:1043F0001B1B102B10D9281910F0070F08D04FF0F5
:10440000500383F31188BFF36F8FBFF34F8FFEE725
:1044100043606C60FFF794FF6968134A13695B1A85
:104420001361D268934201D20F4AD3600E4B5B698D
:104430000B436B6000232B6002E0002600E00026A7
:10444000FFF70EFB16F0070F0CD04FF0500383F36D
:104450001188BFF36F8FBFF34F8FFEE70026EFE7A2
:104460000026EDE7304670BD6401002080B338B50A
:104470000446A0F1080550F8043C164A526913425C
:1044800008D14FF0500383F31188BFF36F8FBFF350
:104490004F8FFEE750F8081C41B14FF0500383F3F3
:1044A0001188BFF36F8FBFF34F8FFEE723EA02033C
:1044B00040F8043CFFF744FA54F8041C054A136919
:1044C0000B4413612846FFF73BFFFFF7C9FA38BDDD
:1044D000704700BF6401002000B583B0132301932F
:1044E000044B009301230022D021FCF7B7FE03B058
:1044F0005DF804FB842400200138052804D8DFE897
:1045000000F00F0507090B0D064870470648704775
:104510000648704706487047064870470648704787
:104520000648704797240020AF240020BB240020B9
:104530009D240020A9240020B5240020A3240020CD
:1045400030B585B004460E238DF80C3004238DF869
:104550000D3064250095022303AAD021FCF7C2FD8B
:104560000F238DF80C3000238DF80D3000950223B9
:1045700003AAD0212046FCF7B5FD05B030BD00B53B
:1045800085B00F238DF80C3000238DF80D30642397
:104590000093022303AAD021FCF7A4FD05B05DF827
:1045A00004FB000010B584B00D4B93F83D30002B98
:1045B0000CBF012400244FF00E038DF80C300CD0FA
:1045C00004238DF80D3064230093022303AAD02125
:1045D000FCF788FD204604B010BD0523F1E700BFBD
:1045E00084240020052859D0062800F0C48004281F
:1045F00000D07047012929D002290DD00029F8D117
:10460000934B9A7F022A3BD0914B5B7F092B3FD083
:1046100001338F4A537770478D4B9A7E052A07D016
:104620008B4B5B7E092B0BD00133894A5376704745
:104630005B7E092BF4D1864B00225A769A7670471E
:10464000834B0021597601329A767047804B1A7F4E
:10465000052A07D07E4BDB7E092B0BD001337C4A29
:10466000D3767047DB7E092BF4D1794B0022DA76C2
:104670001A777047764B0021D97601321A77704746
:104680005B7F032BC0D1724B00225A779A77704719
:104690006F4B0021597701329A777047012932D048
:1046A00002290DD00029A4D1694B93F82530092B9C
:1046B0004BD0092B55D00133654A82F8253070471D
:1046C000634B93F82A20032A09D0614B93F82930D1
:1046D000092B10D001335E4A82F82930704793F8D5
:1046E0002930012BF1D15A4B012283F829200022D5
:1046F00083F82A207047564B002183F82910013295
:1047000083F82A207047524B93F82820012A09D0B9
:104710004F4B93F82730092B0FD001334C4A82F8C6
:104720002730704793F82730022BF1D1484B83F89C
:104730002720002283F828207047454B002183F86A
:104740002710013283F828207047414A92F826202A
:10475000092AAED13E4B002283F8252083F826207B
:1047600070473B4B002283F8252093F82620013226
:1047700083F826207047012935D0022911D000295D
:104780007FF437AF324B93F83620022A4DD0304BAE
:1047900093F83530092B53D001332D4A82F8353048
:1047A00070472B4B93F83220052A09D0284B93F8F9
:1047B0003130092B0FD00133254A82F83130704750
:1047C00093F83130092BF1D1214B002283F83120AD
:1047D00083F8322070471E4B002183F831100132DC
:1047E00083F8322070471A4B93F83420052A09D0F9
:1047F000174B93F83330092B0FD00133144A82F84A
:104800003330704793F83330092BF1D1104B00222D
:1048100083F8332083F8342070470D4B002183F850
:104820003310013283F83420704793F83530032B6E
:10483000ADD1074B002283F8352083F8362070472E
:10484000034B002183F83510013283F83620D0E67F
:1048500084240020074B002283F8252083F826209B
:10486000012183F8271083F8282083F8291083F882
:104870002A2070478424002070B584B004460129A2
:1048800038D002296ED009B104B070BD00238DF874
:104890000C30574DAA7E95F9193043EA02138DF872
:1048A0000D3064260096022303AAD021FCF71AFCDF
:1048B00001238DF80C302A7F95F91B3043EA02134F
:1048C0008DF80D300096022303AAD0212046FCF774
:1048D00009FC02238DF80C30A97F95F91D2042EACE
:1048E00001128DF80D20009603AAD0212046FCF776
:1048F000F9FBC9E706238DF80C303D4D95F82620CD
:1049000095F9253043EA02138DF80D3064260096A0
:10491000022303AAD021FCF7E5FB05238DF80C3018
:1049200095F8282095F9273043EA02138DF80D30C9
:104930000096022303AAD0212046FCF7D3FB0423D0
:104940008DF80C3095F82A2095F9293043EA0213A6
:104950008DF80D300096022303AAD0212046FCF7E3
:10496000C1FB91E707238DF80C30214D95F83220DB
:1049700095F9313043EA02138DF80D306426009624
:10498000022303AAD021FCF7ADFB08238DF80C30DD
:1049900095F8342095F9333043EA02138DF80D3041
:1049A0000096022303AAD0212046FCF79BFB092393
:1049B0008DF80C3095F8362095F9353043EA02131E
:1049C0008DF80D300096022303AAD0212046FCF773
:1049D00089FB0A238DF80C3080238DF80D3000966A
:1049E000022303AAD0212046FCF77CFB4CE700BF42
:1049F0008424002030B4474B1A7802F00F01D97498
:104A000012091A755A7802F00F01597512099A7530
:104A10009A7802F00F01D975C2F301121A769A79C9
:104A200002F00F01D977120983F820205A7902F099
:104A30000F0183F82110C2F3001283F822201A79A3
:104A400002F00F0183F82310C2F3011283F824202F
:104A5000DA7902F00F0183F82B10120983F82C2069
:104A60001A7A02F00F0183F82D10120983F82E2014
:104A70005A7A02F00F0183F82F10C2F3011283F863
:104A800030209B7C9B09032B3CD8DFE803F00223FA
:104A90002B33204B002283F8372083F838201D4A1F
:104AA000517C01F07F041C4B83FB04039B101D46CB
:104AB00003EB83035800231A82F8393082F83A5006
:104AC000C90982F83B10937B03F0010382F83D3063
:104AD00030BC70470F4B052283F83720022283F841
:104AE0003820DCE70B4B002283F83720052283F8BF
:104AF0003820D4E7074B052283F83720072283F8B4
:104B00003820CCE7034B002283F8372083F8382085
:104B1000C5E700BF8424002067666666034B036018
:104B200054330B6080231360704700BF7C2100204A
:104B30002DE9F04389B00024049405940694079469
:104B4000434B9A6942F010029A619A6902F010028E
:104B50000092009A9A6942F020029A619A6902F0E2
:104B600020020192019A9A6942F004029A619A69BC
:104B700002F004020292029A9A6942F008029A61D3
:104B80009B6903F008030393039BDFF8D090224650
:104B90004FF460414846FBF7E2FD2E4E224649F6AF
:104BA000C5713046FBF7DBFDDFF8B48022464FF2DB
:104BB000FB014046FBF7D3FD4FF46043049301270C
:104BC000059706940225079504A94846FBF7B0FC13
:104BD00049F6C573049305970694079504A93046D2
:104BE000FBF7A6FC04951C4B0593069504A93046DB
:104BF000FBF79EFC182304930594069704A93046FE
:104C0000FBF796FC202304930594069504A93046EF
:104C1000FBF78EFC4FF2FB03049305970694079570
:104C200004A94046FBF784FC4FF4417304930594B8
:104C3000069404A94046FBF77BFC22460521072089
:104C4000FBF7BCFA0720FBF7EDFA09B0BDE8F083EB
:104C50000010024000080140000021100010014037
:104C6000000C014000B583B00A4B5A6942F00102C2
:104C70005A615B6903F001030193019B0022052146
:104C80000F20FBF79BFA0F20FBF7CCFA03B05DF87F
:104C900004FB00BF0010024030B587B0002402942E
:104CA000039404940594009401940F4D4FF08043B5
:104CB0002B6044F24F636B60AC6040F2F313EB6027
:104CC0002C61AC612846FDF78BFE4FF480530293B4
:104CD00002A92846FDF7BBFE0094019469462846C8
:104CE000FDF722FF07B030BD0026002030B587B0A9
:104CF00000240294039404940594009401940E4DAE
:104D00000E4B2B6040F2E7336B60AC604723EB60E7
:104D10002C61AC612846FDF763FE4FF4805302938B
:104D200002A92846FDF793FE00940194694628469F
:104D3000FDF7FAFE07B030BD6025002000040040FA
:104D400030B587B000240294039404940594009431
:104D500001940E4D0E4B2B6040F2E7336B60AC605C
:104D60008F23EB602C61AC612846FDF739FE4FF4D0
:104D70008053029302A92846FDF769FE009401942E
:104D800069462846FDF7D0FE07B030BDC424002098
:104D90000008004008B50948094B0360094B43600F
:104DA00000238360C3604FF48042026143618361EA
:104DB000C3610362FCF7B8F808BD00BF0C250020F2
:104DC00000580040801A060000B583B000238DF81B
:104DD00007304FF0FF320DF10701044B1868FEF762
:104DE00021FA9DF8070000F01DFDF2E7FC250020E8
:104DF00008B54FF0FF31044B1868FEF7C1FA0420E4
:104E000000F010FDF5E700BFA825002010B508212F
:104E10003848FBF79DFC90B90446374B5B78A3B943
:104E2000364B5B783BB1344B0A225A70334B00222D
:104E30005A70012409E001242F4B5C7005E0002426
:104E40002D4B5C702D4B01225A7010212948FBF725
:104E50007FFC90B9284B9B78ABB9284B9B783BB132
:104E6000254B0A229A70254B00229A7002240AE0F0
:104E7000214B01229A70022405E01F4B00229A70F8
:104E80001E4B01229A7020211A48FBF761FC90B951
:104E9000194BDB78ABB9194BDB783BB1164B0A22C7
:104EA000DA70164B0022DA7003240AE0124B01225A
:104EB000DA70032405E0104B0022DA700F4B012258
:104EC000DA704FF480710E48FBF742FC0B4B5B79B4
:104ED000984202D0084A52790AB1204610BDB3FA6E
:104EE00083F35B09054A5371034B01225A71052470
:104EF000F3E700BF00080140D02300200C00002091
:104F0000000C014000B583B000238DF8073002E0AB
:104F10006420FDF77FFEFFF779FF8DF8070000287A
:104F2000F6D000231A460DF1070102480068FEF78B
:104F30005FF8EDE7FC25002030B591B0002409941E
:104F40000B940C940194029403940494059401220C
:104F500006924FF48033079308940A9202250D9528
:104F60000E934FF4E0130F9306A8FDF7A3F80F2359
:104F70000193029503944FF48063049305942946AA
:104F800001A8FDF7D5FA11B030BD000080B59CB086
:104F9000FBF7DEF8FFF7D0FFFFF7CAFDFFF762FE71
:104FA000FFF77AFEFFF7A2FEFFF7F4FEFFF7C8FE59
:104FB00000F02AFC00271A971B9701211AA8FDF779
:104FC00030FE1E4B18601E4C16AD94E80F0085E8AD
:104FD0000F0039462846FDF748FE1A4B18600FAD02
:104FE00004F110060FCE0FC596E8070085E807000C
:104FF00039460FA8FDF7D9FD134B186008AD04F131
:105000002C060FCE0FC596E8070085E80700394645
:1050100008A8FDF7CAFD0D4B186001AD48340FCC50
:105020000FC594E8070085E80700394601A8FDF799
:10503000BCFD074B1860FDF7B3FDFEE7A825002077
:105040009C6A0008FC250020F4250020F0250020A3
:10505000F825002000B583B00023019302280CD06E
:10506000019B3BB1084B4FF080521A60BFF34F8F4A
:10507000BFF36F8F03B05DF804FB01A9034B186801
:10508000FEF776F8ECE700BF04ED00E0A82500206D
:1050900008B50268034B1B689A4200D008BDFFF7B1
:1050A000A9FCFBE70C25002038B5044602682D4B0F
:1050B0009A420CD022682C4B9A420BD022682B4B80
:1050C0009A420AD02368B3F1804F45D038BDFBF730
:1050D00051F8EFE700F05EFCF0E7254B5B79002B21
:1050E00036D0234B9B79BBB9214B5B7813B1013B85
:1050F0001F4A53701E4B9B7813B1013B1C4A93709F
:105100001B4BDB7813B1013B194AD370184B5B7909
:1051100013B1013B164A537100F094FA00F04AF8BB
:10512000134843790133D9B282790132D3B2114A9B
:10513000A2FB03525209642505FB123282710E4B09
:10514000A3FB01231B09FA2202FB13134371B9E7E6
:105150000A48FFF7C1F9C4E70421082000F024FC45
:10516000B4E700BF002C01400004004000080040EC
:10517000D02300201F85EB51D34D62100C25002059
:10518000704700000949012008704870084B002250
:105190001A705A709A7088701A710C225A713022E3
:1051A000DA7103229A711A72704700BF1100002051
:1051B000D823002010B5364B1B78002B53D0344B2E
:1051C0005B78002B4FD0334A537813441B79527AC3
:1051D00003F003039A4231D201224FF400512E48CA
:1051E000FBF7BDFA2B4A537813441B79527AC3F369
:1051F00081039A4229D201224FF400412648FBF74D
:10520000AEFA244A537813441B79527AC3F301133C
:105210009A4221D201224FF480411F48FBF79FFAA6
:105220001C48437A0133DBB21C4AA2FB031202F092
:10523000FE0101EB52029B1A437227E000224FF459
:1052400000511548FBF78BFACCE700224FF40041E0
:105250001148FBF784FAD4E700224FF480410E484E
:10526000FBF77DFADCE70C4C00224FF4804120462E
:10527000FBF775FA00224FF400412046FBF76FFA66
:1052800000224FF400512046FBF769FA10BD00BF21
:1052900011000020D823002000100140ABAAAAAAC8
:1052A00070B50446DF4B9878FFF726F90646DE4DC9
:1052B00000224FF480612846FBF751FA00224FF498
:1052C00000612846FBF74BFA00224FF48051284634
:1052D000FBF745FA00224FF400712846FBF73FFA2E
:1052E00000224FF480712846FBF739FA05F58065F6
:1052F00000224FF400412846FBF731FA00224FF418
:1053000080412846FBF72BFA00224FF40051284633
:10531000FBF725FA335D092B30D8DFE813F00A00DC
:1053200040004E006E008E00AA00CC00F400080180
:105330003601BD4D01224FF480612846FBF70FFA7C
:1053400001224FF400612846FBF709FA01224FF4CD
:1053500080512846FBF703FA01224FF400712846DA
:10536000FBF7FDF901224FF480712846FBF7F7F9AE
:1053700001224FF40041AD48FBF7F1F9A94B9B78AE
:10538000032B00F02A8101228021A748FBF7E7F9CF
:10539000022C00F04D81042C00F04A8170BDA24D1A
:1053A00001224FF400612846FBF7D9F901224FF49E
:1053B00080512846FBF7D3F9E0E79B4D01224FF4DB
:1053C00080612846FBF7CBF901224FF400612846A3
:1053D000FBF7C5F901224FF400712846FBF7BFF92E
:1053E00001224FF480712846FBF7B9F901224FF4EE
:1053F00080418E48FBF7B3F9C0E78B4D01224FF493
:1054000080612846FBF7ABF901224FF40061284682
:10541000FBF7A5F901224FF480512846FBF79FF9CD
:1054200001224FF400712846FBF799F901224FF44D
:1054300080417E48FBF793F9A0E77B4D01224FF4B2
:1054400000612846FBF78BF901224FF48051284672
:10545000FBF785F905F5806501224FF400412846E8
:10546000FBF77DF901224FF480412846FBF777F9DD
:1054700084E76D4D01224FF480612846FBF76FF9F8
:1054800001224FF480512846FBF769F901224FF4BD
:1054900000712846FBF763F905F5806501224FF49A
:1054A00000412846FBF75BF901224FF48041284672
:1054B000FBF755F962E75C4D01224FF48061284605
:1054C000FBF74DF901224FF480512846FBF747F9CD
:1054D00001224FF400712846FBF741F901224FF4F5
:1054E00080712846FBF73BF905F5806501224FF4F2
:1054F00000412846FBF733F901224FF4804128464A
:10550000FBF72DF93AE7484D01224FF48061284618
:10551000FBF725F901224FF400612846FBF71FF93C
:1055200001224FF480512846FBF719F926E73E4D3A
:1055300001224FF480612846FBF711F901224FF454
:1055400000612846FBF70BF901224FF480512846F1
:10555000FBF705F901224FF400712846FBF7FFF82D
:1055600001224FF480712846FBF7F9F805F58065B4
:1055700001224FF400412846FBF7F1F801224FF4D5
:1055800080412846FBF7EBF8F8E6274D01224FF45F
:1055900080612846FBF7E3F801224FF400612846BA
:1055A000FBF7DDF801224FF480512846FBF7D7F8CE
:1055B00001224FF400712846FBF7D1F805F580650C
:1055C00001224FF400412846FBF7C9F801224FF4AD
:1055D00080412846FBF7C3F8D0E60022802112481C
:1055E000FBF7BDF8002280211048FBF7B8F8022C29
:1055F0000AD0042C02D1335D012B0CD000224021B3
:105600000A48FBF7ACF8C9E601224FF400510748FD
:10561000FBF7A5F8EDE701224FF400510348FBF733
:105620009EF8BBE6D823002000080140000C014092
:1056300001224FF400510248FBF791F8AEE600BF9B
:10564000000C014010B500224FF400412E48FBF73A
:1056500086F82E4C002208212046FBF780F8002215
:1056600010212046FBF77BF8002220212046FBF783
:1056700076F8002240212046FBF771F800228021B5
:105680002046FBF76CF8224B9B78F3B1214B9B7AB9
:10569000052B0AD8DFE803F0031A20262C3201225A
:1056A0004FF400411848FBF75AF81A4CA07AFFF75C
:1056B000F7FDA27A0132D2B2174BA3FB02139B086B
:1056C00003EB43035900521AA27210BD01220821B4
:1056D0000E48FBF744F8E8E7012210210B48FBF7DE
:1056E0003EF8E2E7012220210848FBF738F8DCE722
:1056F000012240210548FBF732F8D6E7012280213C
:105700000248FBF72CF8D0E700080140000C0140EC
:1057100011000020D8230020ABAAAAAA08B5084689
:10572000D1B2C0B2FEF75EFF08BD0000014B997018
:10573000704700BFD8230020034A1379013303F0D8
:105740003F031371704700BFD823002008B50848F5
:10575000FDF716F80748FDF713F80748FDF710F8AE
:105760000648FEF7EDFEFFF775F8FFF70BFD08BDE5
:105770000026002060250020C42400200C250020E5
:10578000014B5970704700BFD8230020014B59705E
:10579000704700BF1100002008B5C9B20148FFF7EB
:1057A0006BF808BD0C250020014B9970704700BFB5
:1057B00011000020014B1970704700BFD823002052
:1057C00008B50548FEF7EEFE18B10C22034B1A721D
:1057D00008BD0322FAE700BF0C250020D8230020D3
:1057E000024A1378DB431370704700BF110000209A
:1057F00008B50248FEF7C3FE08BD00BF0C25002017
:1058000008B5FFF727F808BD10B5054C204601F094
:1058100015F8204601F023F8204601F025F810BDC8
:10582000E423002008B50138042807D8DFE800F099
:10583000030A0E1216000B4801F0C0F8094801F0E7
:1058400013F808BD074801F0BCF8F7E7054801F078
:10585000BBF8F3E7034801F0BAF8EFE7014801F0BD
:10586000AAF8EBE7E423002028B3F0B4074621B3FD
:105870002AB3002001E00130C0B2042818D800EBA0
:105880004004114D05EBC404246B8C4219D0002C4C
:10589000F1D100EB400005EBC000C7620163426339
:1058A0008363C3639DF8103080F84030012000E02E
:1058B0000020F0BC7047002070470020F9E700206E
:1058C000F7E70020F5E700BFD823002000B583B03C
:1058D00000931346024AFFF7C7FF03B05DF804FBCD
:1058E000A569000870B500240EE004EB4402D30063
:1058F000144E1E44736BF06A984796F84030C3B15B
:10590000B16BF1630134E4B2042C1AD804EB440304
:10591000DA000C4B1344196B0029F3D0094B1344E4
:10592000DB6B002BE1D01146064A0A44013BD363EE
:10593000E8E704EB4405EA00024B134400221A6333
:10594000E0E770BDD82300200023042B17D810B443
:1059500003EB43020B4901EBC202126B824206D0F9
:105960000133DBB2042BF3D9002010BC704703EBEA
:10597000430401EBC404002323630120F5E7002066
:10598000704700BFD823002008B50846FFF7DCFFAA
:1059900008BD000008B5FFF7A5FF024800F064FF4E
:1059A00008BD00BFE4230020814220D810B5044682
:1059B000104B1B7823B10F4B93F8A4308B4211D3BB
:1059C000002201210C48FAF7CAFE0A4A92F8A40004
:1059D0000130C0B2B0FBF4F304FB130082F8A40062
:1059E000012010BD01210448FAF7BFFEEDE70020B9
:1059F000704700BFD82300200008014000B583B0E5
:105A0000114B9A6942F001029A619A6902F001020F
:105A10000092009ADA6942F08052DA61DB6903F0A1
:105A200080530193019B00220F216FF00100FAF7D0
:105A3000C5FB064A536823F0E06343F000735360EC
:105A400003B05DF804FB00BF0010024000000140FD
:105A500030B587B000230293039304930593026843
:105A6000214B9A4201D007B030BD04461F4DAB69AF
:105A700043F00803AB61AB6903F008030093009B9C
:105A80004FF440630293122303930323059302A967
:105A90001748FAF74DFDEB6943F48003EB61EB69BE
:105AA00003F480030193019B1248134B036000230E
:105AB000436083608022C26003614361202282616F
:105AC000C361FAF7D3FB58B90A4BA3635C620022A7
:105AD00005212120FAF772FB2120FAF7A3FBC2E788
