:020000040800F2
:100000000050002081600008C1520008C35200085F
:10001000C5520008C7520008C9520008000000007D
:100020000000000000000000000000007137000820
:10003000CB520008000000001138000855380008B5
:10004000C9600008C9600008C9600008C9600008EC
:10005000C9600008C9600008C9600008CD520008E6
:10006000C9600008C9600008C9600008C9600008CC
:10007000C9600008C9600008C9600008D9520008BA
:10008000C9600008C9600008C9600008C9600008AC
:10009000C9600008C9600008C9600008C96000089C
:1000A000C9600008E9520008C9600008C96000087A
:1000B000F95200080953000819530008C9600008E4
:1000C000C960000829530008C9600008C960000819
:1000D000C9600008C9600008C9600008C96000085C
:1000E000C9600008C9600008C9600008000000007D
:1000F0000000000000000000000000000000000000
:0C01000000000000000000005FF808F1A3
:1001100010B5054C237833B9044B13B10448AFF341
:1001200000800123237010BD180000200000000093
:100130002C61000808B5034B1BB103490348AFF31A
:10014000008008BD000000001C0000202C61000899
:1001500008B5074A136843F010031360032000F04A
:100160001BF8002005F070F804F09EFF002008BD89
:1001700000200240034A1168034B1B780B441360B4
:10018000704700BF3022002000000020014B18689B
:10019000704700BF30220020074AD36823F4E06391
:1001A0001B041B0C000200F4E060184340F0BF6029
:1001B00040F40030D060704700ED00E030B4174BE1
:1001C000DB68C3F30223C3F10704042C28BF042413
:1001D0001D1D062D18D9033B4FF0FF3505FA04F419
:1001E00021EA0401994005FA03F322EA03031943C3
:1001F00000280BDB0901C9B200F1604000F5614045
:1002000080F8001330BC70470023E5E700F00F00D2
:100210000901C9B2024B1954F4E700BF00ED00E038
:1002200014ED00E000F01F02400901239340024A50
:1002300042F82030704700BF00E100E070B4066C67
:10024000C56B0124B4406C60046863604368102B84
:1002500005D0036899600368DA6070BC7047036872
:100260009A600368D960F8E760B310B40246016889
:10027000154B0B441548A0FB03031B099B0013649B
:10028000134BD363022382F82130086820F47F5097
:1002900020F03000536894682343D46823431469E2
:1002A00023435469234394692343D4692343034379
:1002B0000B6000209063012382F8213082F8200037
:1002C00010BC704701207047F8FFFDBFCDCCCCCCEF
:1002D0000000024038B590F82040012C32D00124B3
:1002E00080F8204090F82140012C04D0002380F8B1
:1002F0002030022038BD0446022084F8210000206E
:10030000A0632568286820F0010028602046FFF7D8
:1003100095FFE36A5BB12268136843F00E03136034
:100320002268136843F0010313600020E2E72268AB
:10033000136823F0040313602268136843F00A0370
:100340001360EDE70220D5E708B590F82130022BC5
:1003500003D004238363012008BD0268136823F0DF
:100360000E0313600268136823F00103136003682F
:10037000194A934214D0143293421FD0143293423C
:100380001ED0143293421ED0143293421ED0143227
:10039000934202D04FF0807203E04FF4801200E0ED
:1003A00001220E4B5A60012380F82130002380F88F
:1003B0002030436B6BB198470020CDE71022F0E767
:1003C0004FF48072EDE74FF48052EAE74FF4803249
:1003D000E7E70020C0E700BF08000240000002403D
:1003E00038B5C36B1A6804682568016C04238B4018
:1003F000134235D015F0040F32D0236813F0200FCC
:1004000003D1236823F0040323600368434A934223
:1004100014D01432934218D01432934217D01432AD
:10042000934217D01432934217D01432934202D021
:100430004FF0806203E04FF4800200E00422384B6A
:100440005A60C36A03B1984738BD4022F7E74FF4BA
:100450008062F4E74FF48042F1E74FF48022EEE748
:1004600002238B4013423CD015F0020F39D0236891
:1004700013F0200F06D1236823F00A032360012321
:1004800080F821300368254A934214D014329342F5
:100490001CD0143293421BD0143293421BD014321E
:1004A00093421BD01432934202D04FF0007203E00B
:1004B0004FF4001200E00222194B5A60002380F82A
:1004C0002030836A002BBFD09847BDE72022F3E796
:1004D0004FF40072F0E74FF40052EDE74FF40032B2
:1004E000EAE7082303FA01F11142ADD015F0080F35
:1004F000AAD0236823F00E032360026CC16B012392
:1005000003FA02F24A60836380F82130002380F806
:100510002030036B002B97D0984795E708000240E6
:1005200000000240F0B482B000263546A1E0002C65
:1005300059D0012C00D1CE68FF2B68D88446FF2B00
:1005400068D8AC00DCF800200F27A74022EA070299
:1005500006FA04F42243CCF800204A6812F0805FC7
:1005600000F086805E4A946944F0010494619269C7
:1005700002F001020192019AAC08A71C594A52F8F4
:10058000272005F00307BF004FF00F0C0CFA07FC03
:1005900022EA0C0C544A904242D002F5806290420A
:1005A0007FD002F5806290427DD002F58062904259
:1005B00034D0042235E04D4FBC4214D00BD94C4FFF
:1005C000BC4210D007F58037BC420CD0A7F580178D
:1005D000BC42B1D107E0A7F58017BC4203D007F5B4
:1005E0008037BC42A8D18C687CB1012C08D0426114
:1005F0000826A1E7CE6808369EE7CE680C369BE752
:100600000261082698E7002696E7042694E700F1A1
:10061000040C94E7A5F10804A40093E7032200E08A
:100620000022BA4042EA0C0202342E4F47F824203E
:100630004A6812F4803F38D02E4C22681A43226058
:100640004A6812F4003F36D02A4C62681A4362604E
:100650004A6812F4801F34D0264CA2681A43A26064
:100660004A6812F4001F32D0224CE2681343E36060
:1006700001350F2D31D80122AA400B6813409A4250
:10068000F6D14C68122CB8D095D8022CB2D07FF697
:100690004EAF032CB7D0112C7FF44EAFCE6804368A
:1006A0004AE70122BDE70222BBE7124C226822EA98
:1006B00003022260C4E70F4C626822EA0302626010
:1006C000C6E70C4CA26822EA0302A260C8E7094C04
:1006D000E26822EA0303E360CAE702B0F0BC7047B5
:1006E00000100240000001400008014000002110FD
:1006F00000003110000401408368194201D100203C
:1007000070470120704712B9090401617047016107
:100710007047C3685940C1607047000008B5054B79
:100720005B69034200D108BD024B586103F0D4FF5E
:10073000F9E700BF0004014090F83E30DBB2402BE7
:1007400013D00369B3F5804F1ED0036D002B2DD05D
:10075000036D012B33D1436CC3F3C813026803F05C
:10076000060343F0F103136129E0036D2BB9436CD9
:10077000026803F0FE03136121E0436C026843F05A
:100780000103DBB213611AE090F83D30DBB2212B9C
:1007900006D0436C026843F00103DBB213610EE044
:1007A000436C026803F0FE03136108E0436CC3F37B
:1007B000C813026803F0060343F0F003136100203E
:1007C0007047436C0268DBB213610020704710B4BD
:1007D0008DB090F83E30DAB2C16A046B90F83D30CB
:1007E000DBB2222B0BD000230B9303685A690B92C8
:1007F0009B690B930B9B00200DB010BC7047036DE1
:100800000BB9402A17D0036D1BB90369B3F5404FEC
:1008100019D0438D9BB2002B25D1039303685A69ED
:1008200003929A690392039A1A6842F400721A605A
:1008300000230365DFE7019303685A6901929B690E
:100840000193019BD7E70023029303685A69029240
:100850009A690292029A1A6842F480721A60036DD1
:1008600001330365C7E7438D9BB2012B1AD0438D3B
:100870009BB2022B6BD00268136843F48063136051
:1008800003685A6812F4006F03D05A6842F4805229
:100890005A6000230A9303685A690A929B690A9373
:1008A0000A9BC5E711F5803F16D004293DD00829E1
:1008B0003BD0122C39D0C36A022B30D002681368A7
:1008C00023F4806313600023069303685A69069239
:1008D0009B690693069BABE70268136823F4806369
:1008E000136003685A6812F4006F0CD01A6822F47F
:1008F00080621A600023049303685A6904929B691A
:100900000493049B94E7002205925A6905929A6920
:100910000592059A1A6842F400721A6088E7026824
:10092000136843F480631360CDE70268136823F40F
:10093000806313600023079303685A6907929A69DA
:100940000792079A1A6842F400721A6070E7C36A45
:10095000022B1BD00268136843F40063136000236A
:10096000089303685A6908929A690892089A1A6863
:1009700022F480621A6003685A6812F4006F3FF430
:1009800057AF5A6842F480525A6051E702681368C0
:1009900043F4806313600023099303685A69099242
:1009A0009B690993099BE6E7438D9BB24BB1436A70
:1009B0005A1C426202681B781361438D013B9BB253
:1009C000438500207047438D9BB24BB103681A6981
:1009D000436A591C41621A70438D013B9BB24385A7
:1009E0000020704703685A6912F4806F0DD06FF4CD
:1009F00080625A610423036400230363202280F889
:100A00003D2080F83C300120704700207047F8B549
:100A100006460C4617461D461EE02DB1FFF7B6FBF5
:100A2000069BC01AA84217D900233363202286F8F8
:100A30003D2086F83E3086F83C3003201AE03368CB
:100A40005B6924EA03039BB2B3FA83F35B099F4219
:100A50000FD1B5F1FF3FE0D1C4F30743012BEED036
:100A600033689B6924EA03039BB2B3FA83F35B09FF
:100A7000EDE70020F8BDF8B504460D4616461F46C2
:100A800032E01A6842F400721A6023686FF48062E0
:100A90005A610423236400232363202284F83D2029
:100AA00084F83C3001202DE026B1FFF76FFBC01B1E
:100AB000B04219D900232363202284F83D2084F812
:100AC0003C3003201EE023685B6925EA03039BB2E8
:100AD000003318BF0123A3B123685A6912F4806F51
:100AE000CFD1B6F1FF3FDFD1C5F30743012BEAD0E9
:100AF00023689B6925EA03039BB2003318BF0123D7
:100B0000E9E70020F8BD0000F0B583B004460D46CB
:100B100016461F46C36A042B0DD0012B0BD013F5CC
:100B2000803F08D0036B122B0AD10268136843F48C
:100B30008073136004E02268136843F480731360C9
:100B40000097334600224FF001112046FFF75FFF68
:100B500058BB2369B3F5804F10D1236805F0FE051B
:100B60001D613B46324615492046FFF784FF034688
:100B7000E0B1236C042B1ED1012317E0EB11226896
:100B800003F0060343F0F00313613B4632460C4981
:100B90002046FFF770FF20B1236C042B09D10123FD
:100BA00004E02368EDB21D61DBE70323184603B0C0
:100BB000F0BD0323FAE70323F8E700BF02000100BA
:100BC0000800010070B504460D46164623685B69AF
:100BD00013F0800F19D12046FFF704FFB8B9B5F123
:100BE000FF3FF3D025B1FFF7D1FA801BA842EDD922
:100BF000236C43F02003236400232363202284F822
:100C00003D2084F83C30032000E0002070BD01202E
:100C1000FCE700002DE9F04184B004460E4617467B
:100C200098460B9D0268136843F480631360026862
:100C3000136843F48073136000950A9B00224FF001
:100C40000111FFF7E4FE002874D1F6B2236806F024
:100C5000FE021A612B460A9A3F492046FFF70BFF16
:100C600020B1236C042B6AD1012364E00023039399
:100C700023685A6903929B690393039B2A460A9946
:100C80002046FFF79FFF48B1236C042B59D12268FF
:100C9000136843F40073136001234CE0B8F1010FB3
:100CA00012D12368FFB21F612A460A992046FFF736
:100CB00089FF00B3236C042B47D12268136843F4E7
:100CC00000731360012336E023683A0A1A612A464A
:100CD0000A992046FFF776FF48B1236C042B32D1E6
:100CE0002268136843F400731360012323E0236830
:100CF000FFB21F61D8E72268136843F48073136062
:100D000000950A9B00224FF001112046FFF77FFE5D
:100D1000E8B9236846F001061E612B460A9A0E497F
:100D20002046FFF7A8FE034628B1236C042B10D100
:100D3000012300E00323184604B0BDE8F08103233B
:100D4000F9E70323F7E70323F5E70323F3E7032397
:100D5000F1E70323EFE700BF0200010070B504468E
:100D60000D46164623685B6913F0040F19D120461F
:100D7000FFF738FEB8B9B5F1FF3FF3D025B1FFF763
:100D800005FA801BA842EDD9236C43F020032364AD
:100D900000232363202284F83D2084F83C30032084
:100DA00000E0002070BD0120FCE70000002800F0FA
:100DB000A28038B5044690F83D30002B4FD0242354
:100DC00084F83D302268136823F00103136001F0BA
:100DD000F5F962684A4B9A4246D84A4B98428CBF12
:100DE00000230123002B40F08880474BA3FB002306
:100DF0009B0C226853606168414A91423AD80133A2
:100E00002268136261683E4B99423DD8431E4900F7
:100E1000B3FBF1F30133C3F30B03042B38BF0423FB
:100E20002268D361E369216A22680B431360236956
:100E3000E16822680B4393606369A16922680B43F0
:100E4000D3602268136843F001031360002020641C
:100E5000202384F83D30206384F83E0038BD80F8BC
:100E60003C3004F04BF9AAE7284B98428CBF002392
:100E70000123B7E74FF4967202FB03F3244AA2FB67
:100E800003239B090133BBE7A368BBB9421E01EBF7
:100E90004105B2FBF5F20132C2F30B02B2FA82F263
:100EA000520932BBC3B9013801EB4103B0FBF3F384
:100EB0000133C3F30B0343F40043B1E7421E01EBDC
:100EC000810505EB8505B2FBF5F20132C2F30B0299
:100ED000B2FA82F25209E4E7013801EB810303EB35
:100EE0008303B0FBF3F30133C3F30B0343F4404339
:100EF00096E7012394E7012070470120AEE700BF89
:100F0000A08601007F841E0083DE1B43FF083D0096
:100F1000D34D62102DE9F04184B004460E46904650
:100F20001F46FFF733F994F83D30DBB2202B04D095
:100F30000226304604B0BDE8F08105460090192332
:100F4000012254492046FFF762FD002840F09980B5
:100F500094F83C30012B00F09680012384F83C305B
:100F600023681A6812F0010F03D11A6842F00102D7
:100F70001A602268136823F400631360212384F845
:100F80003D30102384F83E3000232364C4F82480CD
:100F90006785A3F58033E362638D23852B460A9A28
:100FA00031462046FFF7B0FD064660B1236C042BA6
:100FB00004D1002384F83C300126BAE7002384F8EA
:100FC0003C300326B5E70023039323685A69039254
:100FD0009B690393039B10E0236C042B55D122687B
:100FE000136843F4007313600126A2E72A460A99A6
:100FF0002046FFF7B3FE00282BD1238D002B32D0E3
:101000002A460A992046FFF7DDFD0028E4D1636AED
:101010005A1C626222681B781361638D013B9BB28C
:101020006385238D013B9BB223852268516911F0B2
:10103000040FDBD0002BD9D0636A591C61621B7886
:101040001361638D013B9BB26385238D013B238537
:10105000CCE7236C042B1AD12268136843F4007385
:101060001360012665E72268136843F40073136078
:10107000202384F83D30002384F83E3084F83C304F
:1010800057E7022655E7022653E7032651E70326D2
:101090004FE700BF020010002DE9F04387B004467F
:1010A0000E4617469846BDF83C5000230593FFF7BF
:1010B0006DF894F83D30DBB2202B40F0BB808146C8
:1010C000604B1B68DB08604AA2FB03231B0A03EB8F
:1010D000830303EB83030593059B5A1E0592002BA4
:1010E0004FD023689A6912F0020FF5D194F83C2092
:1010F000012A00F0A480012284F83C201A6812F032
:10110000010F03D11A6842F001021A6022681368C5
:1011100023F400631360222384F83D30402384F8D5
:101120003E30002323640E9B63626585474BE36278
:10113000638D9BB22385002B51D0A36B444A9A62E6
:10114000A36B444A1A63A36B00225A632168238D60
:10115000626A1031A06BFFF7BDF8CDF8049023232D
:10116000009343463A4631462046FFF753FD034677
:10117000A0B1236C042B0CD1002384F83C30012354
:1011800059E02363202284F83D2084F83C30032377
:1011900051E0002384F83C3003234CE0012D18D0AB
:1011A00021684A6842F480524A6000210391226813
:1011B0005069039090690390039884F83C1051683B
:1011C00041F48071516021684A6842F400624A60CB
:1011D00031E021680A6822F480620A60E5E7CDF810
:1011E00004902323009343463A4631462046FFF7B6
:1011F00011FD034660B1236C042B04D1002384F855
:101200003C30012317E0002384F83C30032312E034
:101210000020049022685169049191690491049915
:10122000116841F400711160202284F83D2084F897
:101230003C0000E00223184607B0BDE8F08302231B
:10124000F9E700BF1400002089B5F8140000FFFF83
:10125000F7160008CD16000870477047704708B5AC
:1012600090F83D30DAB2438D9BB273B1436A591C9A
:10127000416201681B780B61438D013B9BB2438542
:10128000438D9BB20BB9292A01D0002008BD02680A
:10129000536823F48063536021230363282380F879
:1012A0003D30FFF7DBFFF0E7704790F83D30DAB2F2
:1012B000438D9BB2F3B110B503681969436A5C1C96
:1012C00044621970438D013B9BB24385438D9BB2B1
:1012D0000BB92A2A01D0002010BD0268536823F4FC
:1012E0008063536022230363282380F83D30FFF797
:1012F000DBFFF0E700207047704708B503689A6984
:1013000012F0040F09D000219B6913F0800F06D062
:10131000028BFFF7F1FF002008BD0121F4E782896D
:10132000F7E77047704710B590F83D30DBB290F8A2
:101330003E20D2B2C46A018D09B9212B05D0212BE0
:101340003CD0402A38D0002010BD042C04D0082CFA
:1013500002D014F5803F19D10268536823F4E0638A
:1013600053600268136843F400731360002303633F
:10137000202380F83D3090F83E30DBB2402B15D072
:10138000002380F83E30FFF767FFDCE70268536810
:1013900023F4E063536011230363002380F83E309D
:1013A000202380F83D30FFF757FFCCE7002380F87B
:1013B0003E30FFF7B7FFC6E7222BC4D1438D9BB267
:1013C0007BB190F83E30DBB2402B10D0436A5A1C00
:1013D000426202681B781361438D013B9BB24385D7
:1013E000B1E70268536823F480635360ABE7036D91
:1013F0009BB9C36C012B08D0836CC3F3072302682D
:101400001361036D013303659DE7836C0268DBB2F2
:101410001361036D0233036595E7036D012B17D04C
:10142000036D022B8FD190F83D30DBB2222B17D009
:1014300090F83D30DBB2212B85D1436A5A1C4262C1
:1014400002681B781361438D013B9BB243857AE7A9
:10145000836C0268DBB21361036D0133036572E7CD
:101460000268136843F4807313606CE708B5C26ABE
:1014700090F83D30DBB2212B01D0002008BD438D18
:101480009BB203BB042A04D0082A02D012F5803F85
:1014900024D10268536823F4E06353600268136840
:1014A00043F40073136000230363202380F83D306E
:1014B00090F83E30DBB2402B20D0002380F83E3045
:1014C000FFF7CAFED9E7436A5A1C426202681B78DA
:1014D0001361438D013B9BB24385CEE7026853689D
:1014E00023F4E063536011230363002380F83E304C
:1014F000202380F83D30FFF7AFFEBEE7002380F8E1
:101500003E30FFF70FFFB8E708B590F83D30DBB28B
:10151000222B01D0002008BD438D9BB2032B29D87C
:10152000023B012B31D9C36A022B47D002681368F2
:1015300023F4806313600268536823F4E06353600C
:1015400003681A69436A591C41621A70438D013B52
:101550009BB24385202380F83D300023036390F83D
:101560003E30DBB2402B2FD0002380F83E30FFF717
:1015700074FECFE703681A69436A591C41621A7006
:10158000438D013B9BB24385C4E7C36A022B0FD056
:101590000268136823F4806313600268136843F4DD
:1015A000006313600268536823F480635360B1E7FB
:1015B0000268136843F480631360F3E702681368FA
:1015C00043F480631360B6E7002380F83E3003F0F5
:1015D000A1F89FE708B5C26A438D9BB2032B0FD0D9
:1015E000438D9BB2022B22D003681A69436A591CAF
:1015F00041621A70438D013B9BB24385002008BDB8
:10160000042A04D0082A02D012F5803F04D10268CF
:10161000136823F48063136003681A69436A591CD2
:1016200041621A70438D013B9BB24385E6E7042A71
:1016300017D0082A15D012F5803F12D0022A0AD0FE
:101640000268136823F4806313600268536823F40C
:10165000407353600FE00268136843F480631360C3
:10166000F3E70268536823F4407353600268136819
:1016700043F40073136003681A69436A591C41629A
:101680001A70438D013B9BB2438503681A69436A14
:10169000591C41621A70438D013B9BB24385202344
:1016A00080F83D300023036390F83E30DBB2402BDE
:1016B00005D0002380F83E30FFF7CFFD9EE70023E2
:1016C00080F83E3003F026F898E7704708B5406A86
:1016D0000268136823F4806313600023438520228B
:1016E00080F83D2080F83E30036C43F01003036423
:1016F000FFF7EBFF08BD08B5406A90F83D30DBB25C
:1017000090F83E20212B2AD0D2B2222B25D002687D
:10171000136823F4806313600268136843F4007352
:1017200013600268536823F480535360026853685F
:1017300023F40063536000234385036CE3B9202343
:1017400080F83D3090F83E30DBB2402B17D00023BC
:1017500080F83E30FFF781FD0DE0202AD7D10268E6
:10176000536823F400635360002343850268536881
:1017700043F44073536008BDFFF7A7FFFBE7002366
:1017800080F83E3002F0C6FFF5E7704710B504461A
:1017900090F83D30293B012B36D990F83D30DBB233
:1017A000602B07D003685B6813F4006F02D120231D
:1017B00080F83D300023236384F83E3022681368AC
:1017C00023F40063136023685A6812F4006F3ED05C
:1017D0005A6822F400625A60636B93F82120012A50
:1017E00018D03A4A5A63606BFEF7AEFD00283FD02E
:1017F0002268136823F001031360202384F83D302E
:10180000606B436B984733E000230363282380F821
:101810003D30D3E7A36B2D4A5A63A06BFEF794FDCE
:1018200030B323685A6912F0400F04D01A69636A12
:10183000591C61621A702268136823F00103136057
:10184000202384F83D30A06B436B984710E094F858
:101850003D20D2B2602A11D05A6912F0400F04D054
:101860001A69636A591C61621A702046FFF72DFFDE
:1018700094F83D30DBB2282B17D010BD202284F81D
:101880003D20002222645A6912F0400F04D01A69E8
:10189000636A591C61621A702268136823F001039D
:1018A00013602046FFF771FFE2E7236C13F0040F8B
:1018B000E3D0074BE36200232363202284F83D201A
:1018C00084F83E302046FFF72CFDD6E73D1B00088C
:1018D0000000FFFF10B582B090F83D30DBB2016828
:1018E0004A6822F4E0624A6000220192026851696B
:1018F0000191116841F001011160019A01680A68C3
:1019000022F480620A6001684A6812F4006F14D001
:1019100090F83D20D2B2222A0AD090F83D20D2B2CF
:101920002A2A05D0426B1268526892B2428504E0BE
:10193000826B1268526892B24285428D92B2F2B1C5
:101940004A6912F0040F08D00969426A541C4462C3
:101950001170428D013A92B242850268516911F0CC
:10196000400F08D01169426A541C44621170428DC4
:10197000013A92B24285026C42F004020264026CA7
:10198000A2B9282B15D02A2B13D0292B11D0026BEA
:10199000222A01D0222B17D100230363202280F8B2
:1019A0003D2080F83E30FFF77FFC0DE0FFF7EEFEB4
:1019B0000AE0074BC36200230363202280F83D2026
:1019C00080F83E30FFF7ADFC002002B010BD00BF34
:1019D0000000FFFFF8B5054603689F695C695E6813
:1019E00090F83E30DBB2102B25D0402B23D04C4B4F
:1019F000234013B116F4007F6ED14A4B234013B13C
:101A000016F4007F6BD1484B3B40002B6FD0474B07
:101A1000234033B116F4806F03D0454B2340002B95
:101A200061D0434B234053B316F4007F27D02846A0
:101A3000FEF7BAFF23E014F0011F02D016F4007F76
:101A40001ED13C4B234013B116F4007F1CD1344B04
:101A5000234013B116F4007F1AD1334B3B401BB324
:101A6000324B23402BB116F4806F02D0304B234011
:101A700093B12F4B234013B116F4007F10D1F8BD62
:101A80002846FEF759FEE8E72846FEF79AFEE4E707
:101A90002846FEF79CFEE0E72846FFF744FCEEE709
:101AA0002846FFF7E3FCEAE7234B23402BB116F46B
:101AB000806F02D01E4B234053B11D4B2340002B9F
:101AC000DDD016F4007FDAD02846FFF783FDD6E795
:101AD0002846FFF719FDD2E7FFF70FFCCFE72846AE
:101AE000FFF7F8FECBE72846FFF7B9FBC7E7124B35
:101AF00023402BB116F4806F02D00D4B234053B11D
:101B00000B4B2340002BBAD016F4007FB7D02846E9
:101B1000FEF759FFB3E72846FFF7C7FBAFE700BF63
:101B2000020001001000010004001000800001000C
:101B300004000100080001004000010008B5406AEF
:101B40000268136823F48063136000234385426BAB
:101B50005363826B536390F83D30DBB2602B0DD042
:101B6000202380F83D30002380F83E30026813685F
:101B700023F001031360FFF7A8FD08BD202380F8C0
:101B80003D30002380F83E3003640268136823F080
:101B900001031360FFF7F9FDEFE7000082B0084B87
:101BA0001B68084AA2FB03235B0A00FB03F00190B9
:101BB00000BF019B5A1E0192002BF9D102B0704761
:101BC00014000020D34D621070B582B00446036843
:101BD00013F0010F2CD0AB4B5B6803F00C03042B0C
:101BE0001DD0A84B5B6803F00C03082B12D0636870
:101BF000B3F5803F41D0002B55D103F1804303F56D
:101C000004331A6822F480321A601A6822F480229F
:101C10001A6037E09B4B5B6813F4803FE7D0994B29
:101C20001B6813F4003F03D06368002B00F0AE8103
:101C3000236813F0020F76D0924B5B6813F00C0F01
:101C40005FD0904B5B6803F00C03082B54D02369E2
:101C5000002B00F08A808C4B01221A60FEF796FA66
:101C60000546884B1B6813F0020F75D1FEF78EFAFC
:101C7000401B0228F5D903208BE1824A136843F404
:101C800080331360636843B3FEF780FA05467D4BEB
:101C90001B6813F4003FCBD1FEF778FA401B642891
:101CA000F5D9032075E1B3F5A02F09D0754B1A685B
:101CB00022F480321A601A6822F480221A60E1E766
:101CC00003F18043A3F53C331A6842F480221A6082
:101CD0001A6842F480321A60D4E7FEF757FA0546D4
:101CE000684B1B6813F4003FA2D0FEF74FFA401B6D
:101CF0006428F5D903204CE1624B5B6813F4803F04
:101D0000A5D1604B1B6813F0020F04D02369012B8F
:101D100001D001203DE15B4A136823F0F8036169BB
:101D200043EAC1031360236813F0080F32D0A3699C
:101D3000002B5BD0554B01221A60FEF727FA0546AF
:101D4000504B5B6A13F0020F21D1FEF71FFA401BC4
:101D50000228F5D903201CE14A4A136823F0F8034E
:101D6000616943EAC1031360DDE7474B00221A6053
:101D7000FEF70CFA0546434B1B6813F0020FD2D056
:101D8000FEF704FA401B0228F5D9032001E10120E7
:101D9000FFF704FF236813F0040F00F09780394B1E
:101DA000DB6913F0805F33D1364BDA6942F0805241
:101DB000DA61DB6903F080530193019B0125344B09
:101DC0001B6813F4807F25D0E368012B36D0002BED
:101DD0004CD103F1804303F504331A6A22F0010267
:101DE0001A621A6A22F004021A622CE0274B0022BF
:101DF0001A60FEF7CBF90546224B5B6A13F0020F1F
:101E0000C8D0FEF7C3F9401B0228F5D90320C0E073
:101E10000025D4E71E4A136843F480731360FEF76D
:101E2000B5F906461A4B1B6813F4807FCCD1FEF738
:101E3000ADF9801B6428F5D90320AAE0114A136A82
:101E400043F001031362E36873B3FEF79FF906469C
:101E50000C4B1B6A13F0020F37D1FEF797F9801B6A
:101E600041F288339842F3D9032092E0052B11D038
:101E7000044B1A6A22F001021A621A6A22F0040262
:101E80001A62E0E700100240000042428004424231
:101E900000700040414B1A6A42F004021A621A6A4A
:101EA00042F001021A62CEE7FEF770F906463B4B9C
:101EB0001B6A13F0020F08D0FEF768F9801B41F28D
:101EC00088339842F3D9032063E0E5B9E369002B36
:101ED0005ED0324A526802F00C02082A5BD0022B14
:101EE00017D02F4B00221A60FEF750F904462B4BF7
:101EF0001B6813F0007F47D0FEF748F9001B02284B
:101F0000F5D9032045E0254AD36923F08053D361F6
:101F1000DCE7234B00221A60FEF738F905461F4B19
:101F20001B6813F0007F06D0FEF730F9401B022833
:101F3000F5D903202DE0236AB3F5803F1AD0174965
:101F40004B6823F47413226A606A024313434B60A4
:101F5000134B01221A60FEF719F904460F4B1B6858
:101F600013F0007F0ED1FEF711F9001B0228F5D9FE
:101F700003200EE0094A536823F40033A1680B43A1
:101F80005360DCE7002004E0002002E0012000E0D4
:101F9000002002B070BD0120FBE700BF001002402E
:101FA0006000424210B487B0164C94E80F000DF167
:101FB000180C0CE90F00238AADF80430124B5B6853
:101FC00003F00C02082A1AD1C3F38342624412F8C8
:101FD000102C13F4803F05D10C4800FB02F007B031
:101FE00010BC7047084B5B68C3F34043634413F86D
:101FF000143C074800FB02F0B0FBF3F0EFE70448A5
:10200000EDE700BF446100080010024000093D00F8
:1020100000127A00624B1B6803F007038B420CD25C
:102020005F4A136823F007030B431360136803F040
:1020300007038B4201D00120704770B5036813F08D
:10204000020F17D013F0040F04D0564A536843F41C
:10205000E0635360036813F0080F04D0514A5368DB
:1020600043F4605353604F4A536823F0F00384688D
:10207000234353600D460446036813F0010F52D00A
:102080004368012B23D0022B28D0464A126812F055
:10209000020F00F0828043494A6822F00302134392
:1020A0004B60FEF773F806466368012B1DD0022BC8
:1020B0002AD03C4B5B6813F00C0F34D0FEF766F867
:1020C000801B41F288339842F3D9032064E0354AFB
:1020D000126812F4003FDED101205DE0314A12683F
:1020E00012F0007FD7D1012056E02E4B5B6803F041
:1020F0000C03042B17D0FEF749F8801B41F28833FC
:102100009842F2D9032047E0264B5B6803F00C03AA
:10211000082B08D0FEF73AF8801B41F2883398422A
:10212000F2D9032038E01E4B1B6803F00703AB42D3
:102130000CD91B4A136823F007032B431360136861
:1021400003F00703AB4201D0012025E0236813F020
:10215000040F06D0134A536823F4E063E1680B438D
:102160005360236813F0080F07D00E4A536823F416
:102170006053216943EAC1035360FFF713FF094B22
:102180005B68C3F30313084AD35CD840074B18605D
:10219000002003F059F8002070BD0120FCE700BFCB
:1021A00000200240001002409C6100081400002042
:1021B000014B1868704700BF1400002008B5FFF7F6
:1021C000F7FF044B5B68C3F30223034AD35CD84098
:1021D00008BD00BF00100240AC61000808B5FFF761
:1021E000E7FF044B5B68C3F3C223034AD35CD840C8
:1021F00008BD00BF00100240AC6100080F2303605F
:102200000B4B5A6802F0030242605A6802F0F00277
:1022100082605A6802F4E062C2605B68DB0803F423
:10222000E0630361034B1B6803F007030B60704717
:10223000001002400020024010B4036A046A24F037
:1022400001040462846924F0F00444EA021223F0D9
:102250000A030B438261036210BC704710B4036A27
:1022600023F0100303628469036A24F4704444EA8F
:10227000023223F0A00343EA01138261036210BC1F
:102280007047836823F0700341F0070119438160B0
:10229000704710B4846824F47F4442EA03230B435C
:1022A0002343836010BC70470268D36843F0010386
:1022B000D3600268136843F0010313600020704785
:1022C00090F83C30012B7DD010B50446012380F8F6
:1022D0003C30022380F83D300268936823F47F434A
:1022E00023F0770393600B68402B57D010D9702BE5
:1022F0003ED01FD8502B47D0602B32D1CA684968D6
:102300000068FFF7ABFF60212068FFF7BAFF28E005
:10231000102B4DD008D9202B4FD0302B21D130217C
:102320000068FFF7AEFF1CE0DBB900210068FFF793
:10233000A8FF16E0B3F5805F0ED0B3F5005F10D1B3
:10234000CB684A6889680068FFF7A3FF2268936832
:1023500043F48043936004E00268936823F007032A
:102360009360012384F83D30002084F83C0010BDC8
:10237000CB684A6889680068FFF78BFF226893681A
:1023800043F077039360ECE7CA6849680068FFF799
:1023900053FF50212068FFF774FFE2E7CA684968DD
:1023A0000068FFF749FF40212068FFF76AFFD8E780
:1023B00010210068FFF765FFD3E720210068FFF7D1
:1023C00060FFCEE702207047704770477047704744
:1023D00010B5044603681A6912F0020F11D0DA68CA
:1023E00012F0020F0DD06FF002021A610123037781
:1023F00003689B6913F0030F70D0FFF7E6FF00231B
:10240000237723681A6912F0040F12D0DA6812F0E9
:10241000040F0ED06FF004021A61022323772368A1
:102420009B6913F4407F5FD02046FFF7CEFF002367
:10243000237723681A6912F0080F12D0DA6812F0B5
:10244000080F0ED06FF008021A6104232377236867
:10245000DB6913F0030F4ED02046FFF7B6FF0023D1
:10246000237723681A6912F0100F12D0DA6812F07D
:10247000100F0ED06FF010021A6108232377236823
:10248000DB6913F4407F3DD02046FFF79EFF002319
:10249000237723681A6912F0010F03D0DA6812F06B
:1024A000010F36D123681A6912F0800F03D0DA6861
:1024B00012F0800F34D123681A6912F0400F03D054
:1024C000DA6812F0400F32D123681A6912F0200F37
:1024D00003D0DA6812F0200F30D110BDFFF774FF7F
:1024E0002046FFF773FF8AE72046FFF76DFF20467F
:1024F000FFF76CFF9BE72046FFF766FF2046FFF7DC
:1025000065FFACE72046FFF75FFF2046FFF75EFF61
:10251000BDE76FF001021A61204602F007F9C1E73A
:102520006FF080021A61204600F08DF8C3E76FF06B
:1025300040021A612046FFF74AFFC5E76FF020020C
:102540001A61204600F07EF8C7E7000003681B4AC6
:1025500090420AD0B0F1804F07D0A2F59432904259
:1025600003D002F58062904203D123F070034A68E1
:102570001343124A90420AD0B0F1804F07D0A2F51F
:102580009432904203D002F58062904203D123F44A
:102590004073CA68134323F080034A6913430360FE
:1025A0008B68C3620B688362044B984202D001239C
:1025B000436170470B690363F9E700BF002C0140DA
:1025C000A8B110B5044690F83D305BB1022384F801
:1025D0003D30211D2068FFF7B9FF012384F83D300D
:1025E000002010BD80F83C3002F0DEFDEEE7012057
:1025F000704790F83C30012B22D030B4012280F893
:102600003C20022380F83D300468636823F07003A7
:102610006360046863680D682B4363600468A368A3
:1026200023F08003A3600468A36849680B43A36098
:1026300080F83D20002380F83C30184630BC7047BD
:102640000220704770477047842801D003307047DC
:102650000020704708B500F0D9FC002008BDF0B597
:1026600085B00F46446805680669B0F90800FFF7B1
:10267000EBFF03AB019300903B46B2B229462046E4
:1026800000F092FC012802D1039805B0F0BD0020B3
:10269000FBE708B5034600B90123184600F0F8FD32
:1026A000002008BD10B501290DD103220021012011
:1026B00000F04AF9044620B100231A46194600F0FA
:1026C00067F9204610BD0024FBE708B500224168E9
:1026D000006800F039F908BD00F1080343604FF0CD
:1026E000FF328260C36003610023036070470023F0
:1026F0000361704743684B609A688A609A685160CA
:1027000099600861036801330360704730B40D6855
:10271000B5F1FF3F02D000F1080202E0026904E0D7
:102720001A4653681C68AC42FAD953684B609960EA
:102730008A605160086103680133036030BC7047F0
:1027400003694268816891608268416851605A6893
:10275000824205D000220261186801381860704773
:1027600082685A60F6E710B5044601F013F8A26BD0
:10277000E36B9A4204D0002401F02EF8204610BDED
:102780000124F9E710B5044601F004F8A36B23B166
:10279000002401F021F8204610BD0124F9E770B5AE
:1027A00004461646856B026C5AB903681BB10020BB
:1027B0000135A56370BD406800F034FF00236360FD
:1027C000F6E76EB9806803F0A5FC226CA368134499
:1027D000A3606268934219D32368A3600020E7E7EF
:1027E000C06803F097FC226C5242E3681344E36034
:1027F00021688B4202D263681A44E260022E01D043
:102800000020D5E725B1013D0020D1E70020CFE72A
:102810000020CDE7026C72B110B5C3681344C360E9
:102820004468A34201D30368C3600C46C1682046D4
:1028300003F070FC10BD704738B5054600F0AAFFE4
:1028400095F8454064B203E000F07EFE013C64B2BE
:10285000002C08DD6B6A33B105F1240000F0DEFDC9
:102860000028F3D0F0E7FF2385F8453000F0B4FFEF
:1028700000F090FF95F8444064B203E000F064FE7D
:10288000013C64B2002C08DD2B6933B105F1100066
:1028900000F0C4FD0028F3D0F0E7FF2385F84430B2
:1028A00000F09AFF38BD000038B540B94FF0500332
:1028B00083F31188BFF36F8FBFF34F8FFEE704469A
:1028C0000D4600F067FF2168E26B236C03FB0210EA
:1028D00060600020A063A160013A02FB0313E36083
:1028E000FF2384F8443084F84530A5B923691BB927
:1028F00000F072FF012038BD04F1100000F08EFDE1
:102900000028F5D0084B4FF080521A60BFF34F8F6C
:10291000BFF36F8FECE704F11000FFF7DDFE04F169
:102920002400FFF7D9FEE3E704ED00E010B5029BB9
:102930000C4639B11A60D8631C6401211846FFF7B0
:10294000B3FF10BD1B60F6E740B94FF0500383F3AF
:102950001188BFF36F8FBFF34F8FFEE7F0B583B0E1
:10296000054611B101FB00F000E0002017460C46BF
:10297000483001F05DF8064638B100903B4600F162
:10298000480221462846FFF7D1FF304603B0F0BD8C
:10299000F0B585B0019260B1044699B9026C8AB174
:1029A0004FF0500383F31188BFF36F8FBFF34F8F46
:1029B000FEE74FF0500383F31188BFF36F8FBFF32F
:1029C0004F8FFEE7022B0BD1E26B012A08D04FF0AC
:1029D000500383F31188BFF36F8FBFF34F8FFEE770
:1029E0001E460F4600F0B8FD50B9019B53B14FF0A1
:1029F000500383F31188BFF36F8FBFF34F8FFEE750
:102A000000253AE0002538E0324639462046FFF7F7
:102A1000C6FE636A4BB9A8B13B4B4FF080521A60B7
:102A2000BFF34F8FBFF36F8F0CE004F1240000F071
:102A3000F5FC38B1344B4FF080521A60BFF34F8F22
:102A4000BFF36F8F00F0C8FE012005B0F0BD00F0AD
:102A5000C3FE0020F9E702A800F022FD012519E0DD
:102A6000002384F8443021E0002384F8453023E03B
:102A70002046FFF7E1FE00F093FB00F08BFEA26B17
:102A8000E36B9A42C0D3022EBED0019B002BDED056
:102A9000002DE0D000F0A0FE00F0F2FA00F07AFE87
:102AA00094F844305BB2B3F1FF3FD9D094F845308D
:102AB0005BB2B3F1FF3FD7D000F08EFE01A902A8B0
:102AC00000F002FDC8B92046FFF74DFE0028CFD028
:102AD000019904F1100000F087FC2046FFF7ACFEDE
:102AE00000F05EFB0028C8D1074B4FF080521A60FF
:102AF000BFF34F8FBFF36F8FBFE72046FFF79CFEFA
:102B000000F04EFB0020A0E704ED00E060B170B5DE
:102B10000446036C8BB14FF0500383F31188BFF36D
:102B20006F8FBFF34F8FFEE74FF0500383F3118891
:102B3000BFF36F8FBFF34F8FFEE703682BB30E46D3
:102B400000F0FCFEEFF311854FF0500383F3118882
:102B5000BFF36F8FBFF34F8FA26BE36B934226D906
:102B600094F845305BB20132A263B3F1FF3F18D154
:102B7000636AF3B104F1240000F050FCD8B1E6B16F
:102B80000120306085F3118870BD4368002BD6D0DA
:102B90004FF0500383F31188BFF36F8FBFF34F8F54
:102BA000FEE701335BB284F845300120EAE70020FC
:102BB000E8E70120E6E70120E4E70120E2E7000082
:102BC0002DE9F04184B0019260B1044699B9026CDC
:102BD0008AB14FF0500383F31188BFF36F8FBFF3B7
:102BE0004F8FFEE74FF0500383F31188BFF36F8FD1
:102BF000BFF34F8FFEE71F46884600F0ADFC50B98B
:102C0000019B53B14FF0500383F31188BFF36F8FD3
:102C1000BFF34F8FFEE700265FE000265DE0E66829
:102C200041462046FFF7F6FDDFB9013DA563236865
:102C300013B900F04FFD6060236963B104F1100027
:102C400000F0ECFB38B1464B4FF080521A60BFF3F6
:102C50004F8FBFF36F8F00F0BFFD012004B0BDE8C0
:102C6000F081E660636A002BF5D004F1240000F0E7
:102C7000D5FB0028EFD03A4B4FF080521A60BFF3DB
:102C80004F8FBFF36F8FE6E700F0A6FD0020E5E76A
:102C900002A800F005FC012629E0002384F8443056
:102CA00031E0002384F8453033E000F073FD6068C4
:102CB00000F062FC00F090FD3BE02046FFF7BCFD19
:102CC00000F06EFA09E02046FFF7B6FD00F068FA62
:102CD0002046FFF757FD002840D100F05BFDA56BB3
:102CE000002D9CD1019B002BCED0002ED0D000F027
:102CF00073FD00F0C5F900F04DFD94F844305BB26F
:102D0000B3F1FF3FC9D094F845305BB2B3F1FF3F58
:102D1000C7D000F061FD01A902A800F0D5FB002892
:102D2000D1D12046FFF72EFD0028C6D02368002B06
:102D3000BBD0019904F1240000F056FB2046FFF7B8
:102D40007BFD00F02DFA0028C7D1054B4FF08052D3
:102D50001A60BFF34F8FBFF36F8FBEE700207DE790
:102D600004ED00E0074B9B6A1B6833B1054B9A6A80
:102D7000D268D2685268DA627047024B4FF0FF3275
:102D8000DA6270473400002010B50446006B00F092
:102D9000C9FE204600F0C6FE10BD2DE9F047804672
:102DA0009946089D099F0A9C266B02F18042013AD0
:102DB00006EB820626F0070600230F2B07D8C85C17
:102DC000E21882F83400CA5C0AB10133F5E7002347
:102DD00084F84330062D00D90625E56265644FF07E
:102DE000000AC4F848A0201DFFF781FC04F1180078
:102DF000FFF77DFC2461C5F10705A5616462C4F895
:102E00004CA084F850A04A464146304600F09CFC55
:102E1000206007B13C60BDE8F087000070B5002479
:102E200007E004EB8402930010481844FFF754FCB9
:102E30000134062CF5D90E4C04F1BC063046FFF7E0
:102E40004BFC04F1D0052846FFF746FC04F11400C2
:102E5000FFF742FC04F1E400FFF73EFC2046FFF7D9
:102E60003BFCA662C4F8F85070BD00BF64000020AF
:102E70003400002038B5054600F08CFC264BD3F812
:102E8000FC200132C3F8FC20D3F8003173B1224B8F
:102E9000D3F804318BB9204BD3F80031DA6AEB6AEE
:102EA0009A420AD81C4BC3F8005106E01A4BC3F8EB
:102EB0000051D3F8FC30012B2AD0174CD4F808313C
:102EC0000133C4F80831EB6A01229A40D4F80C119E
:102ED0000A43C4F80C2104F1300003EB83039A0089
:102EE000291D1044FFF706FC00F076FCD4F80431ED
:102EF0006BB1D4F80031DA6AEB6A9A4207D2074B19
:102F00004FF080521A60BFF34F8FBFF36F8F38BD01
:102F1000FFF784FFD1E700BF3400002004ED00E09C
:102F200070B504460E461F4BD3F81051D3F800017C
:102F30000430FFF705FC60B91A4BD3F80021D16AC1
:102F4000012202FA01F1D3F80C2122EA0102C3F8AE
:102F50000C21B4F1FF3F12D02C44124BD3F80031B6
:102F60005C60A54214D80F4DA86AD5F80011043151
:102F7000FFF7CCFBEB6AA34212D9EC6210E0002E03
:102F8000EAD00848D0F800110431FFF7B3FB07E09E
:102F9000044BD3F8F800D3F800110431FFF7B6FB67
:102FA00070BD00BF340000202DE9F04385B0074616
:102FB000884615469946900000F03AFDF8B106465D
:102FC000542000F035FD0446A8B10663D4B10023B7
:102FD000039302940D9B01930C9B00934B462A464E
:102FE00041463846FFF7D9FE2046FFF743FF012050
:102FF00005B0BDE8F083304600F094FDE6E74FF001
:10300000FF30F5E74FF0FF30F2E7000000B583B086
:10301000174B019300230093802216491648FFF7AF
:10302000C3FF012805D0B0F1FF3F17D003B05DF812
:1030300004FB4FF0500383F31188BFF36F8FBFF38E
:103040004F8F0E4B4FF0FF32DA620122C3F804219A
:103050000022C3F8102100F029FCE7E74FF05003ED
:1030600083F31188BFF36F8FBFF34F8FFEE700BF6D
:1030700050010020B4610008313300083400002002
:10308000034AD2F818310133C2F81831704700BF33
:10309000340000202DE9F041404BD3F81831002BCB
:1030A0006CD13E4BD3F810510135C3F81051CDB956
:1030B0009B6A1B6843B14FF0500383F31188BFF341
:1030C0006F8FBFF34F8FFEE7344B9A6AD3F8F81037
:1030D0009962C3F8F820D3F820210132C3F82021E7
:1030E000FFF740FE2D4BDB6AAB423DD900242B4A53
:1030F000D2F80031DB6A03EB830399000A44136BB7
:10310000012B42D9012440E00124244B9B6A1B6817
:1031100063B3224B9B6ADB68DE6873689D422AD3E7
:1031200006F104084046FFF70BFBB36A1BB106F13A
:103130001800FFF705FBF36A01229A40174FD7F8F2
:103140000C110A43C7F80C2107F1300003EB83038D
:103150009A0041461044FFF7CDFAF26AD7F80031E1
:10316000DB6A9A42D0D2D0E70024CEE70B4B4FF077
:10317000FF32DA62BBE7094AD362B8E7074AD2F8FE
:1031800024310133C2F824310024044BD3F8283110
:1031900003B101242046BDE8F08100BF34000020C7
:1031A000394BD3F8183143B94FF0500383F31188EA
:1031B000BFF36F8FBFF34F8FFEE770B500F0EAFAF1
:1031C000314BD3F81821013AC3F81821D3F818313C
:1031D000002B54D12C4BD3F8FC3023B9002400F041
:1031E000FBFA204670BD0024274B5B692BB3264DAC
:1031F0002B6ADC6804F11800FFF7A2FA261D30469E
:10320000FFF79EFAE36A01229A40D5F80C110A43AF
:10321000C5F80C2105F1300003EB83039A00314619
:103220001044FFF767FAE26AD5F80031DB6A9A4288
:10323000DAD30122C5F82821D6E70CB1FFF792FDB9
:10324000114BD3F8244164B1FFF724FF18B10E4BA2
:103250000122C3F82821013CF6D10B4B0022C3F810
:103260002421094BD3F828315BB1084B4FF0805231
:103270001A60BFF34F8FBFF36F8F0124AFE70024B5
:10328000ADE70024ABE700BF3400002004ED00E010
:1032900010B5B0B104460F4BD3F8183143B14FF01D
:1032A000500383F31188BFF36F8FBFF34F8FFEE797
:1032B000FFF7E6FE00212046FFF732FEFFF770FF22
:1032C00038B9054B4FF080521A60BFF34F8FBFF3F0
:1032D0006F8F10BD3400002004ED00E038B5134BB3
:1032E000D3F814310BB3FFF7CBFE104BD3F8E44007
:1032F000FFF756FF002CF2D000F04CFA0B4CD4F83C
:10330000F030DD68281DFFF71BFAD4F8FC30013BD4
:10331000C4F8FC30D4F81431013BC4F8143100F087
:103320005BFA2846FFF730FDD9E738BD34000020AE
:1033300008B5FFF7D3FF064B1B6B012BF9D9054BE3
:103340004FF080521A60BFF34F8FBFF36F8FF0E7DB
:103350003400002004ED00E0224BD3F8183123B1F3
:10336000204B0122C3F8282170471E4A0023C2F8CF
:103370002831D2F80C31B3FA83F3DBB2C3F11F0367
:1033800003EB830081000A44126B42B94FF05003F3
:1033900083F31188BFF36F8FBFF34F8FFEE710B435
:1033A000104A9900CC18A0001044446B6468446330
:1033B0003032194488000830024494420AD0094946
:1033C00003EB83039A000A44536BDB68C1F80031B6
:1033D00010BC704761680348142202FB030251636A
:1033E000EDE700BF3400002040B94FF0500383F3F5
:1033F0001188BFF36F8FBFF34F8FFEE710B50C46F8
:10340000054BD3F800111831FFF780F90121204650
:10341000FFF786FD10BD00BF3400002038B5C3683B
:10342000DC6844B94FF0500383F31188BFF36F8F0A
:10343000BFF34F8FFEE704F118052846FFF780F928
:10344000154BD3F8183103BB251D2846FFF778F933
:10345000E36A01219940104AD2F80C010143C2F8F5
:103460000C11303203EB8303980029461044FFF718
:1034700041F9E26A084BD3F80031DB6A9A4209D974
:103480000120054BC3F8280138BD29460348FFF742
:1034900031F9EEE70020F7E7340000204800002073
:1034A00038B1084AD2F820110160D2F810214260E8
:1034B00070474FF0500383F31188BFF36F8FBFF352
:1034C0004F8FFEE73400002038B550B1044689B96B
:1034D0004FF0500383F31188BFF36F8FBFF34F8F0B
:1034E000FEE74FF0500383F31188BFF36F8FBFF3F4
:1034F0004F8FFEE70D4600F04DF9124BD3F8101137
:103500002B68B3F1FF3F19D020680E4AD2F8202172
:10351000904202D062688A4212D96268881A834255
:1035200004D8012400F058F9204638BD521A13443B
:103530002B602046FFF7B4FF0024F3E70024F1E7F7
:103540000124EFE734000020024B0122C3F82821B8
:10355000704700BF34000020064BD3F804313BB164
:10356000044BD3F818310BB100207047022070478C
:10357000012070473400002000284DD038B50546A2
:10358000C26A2649D1F80011C96A8A4216D28169F5
:10359000002906DB2149D1F80011C96AC1F10701F0
:1035A0008161686902EB820291001D4A0A449042DF
:1035B00005D01A4AD2F80021D26AEA6238BD2C1D21
:1035C0002046FFF7BDF8A0B11448D0F80031DB6AFF
:1035D000EB6201229A40D0F80C110A43C0F80C218A
:1035E000303003EB83039A0021461044FFF782F842
:1035F000E4E7EA6A02EB82039900084B0B441B6B79
:10360000002BE1D1012393400449D1F80C2122EA97
:103610000302C1F80C21D7E7704700BF3400002037
:103620006400002000284DD038B50446284AD2F85E
:103630000021824208D04FF0500383F31188BFF37A
:103640006F8FBFF34F8FFEE7826C42B94FF050038C
:1036500083F31188BFF36F8FBFF34F8FFEE7013AFB
:103660008264C06A616C88422ED07ABB251D2846D0
:10367000FFF766F878B9E26A1549142303FB0213D1
:103680001B6B43B9012303FA02F2D1F80C3123EA90
:103690000203C1F80C31626CE262C2F10703A3615C
:1036A000012404FA02F10A4BD3F80C010143C3F8D8
:1036B0000C1130332946142000FB0230FFF71AF8B2
:1036C000204638BD002070470020FAE70020F8E7C8
:1036D00034000020064BD3F800312BB1044BD3F853
:1036E0000021936C01339364014BD3F800017047C0
:1036F000340000200B4B1B68B3F1FF3F08D04FF0A4
:10370000500383F31188BFF36F8FBFF34F8FFEE732
:103710004FF0500383F31188BFF36F8FBFF34F8FC8
:10372000FEE700BF0800002006480068006880F33C
:10373000088862B661B6BFF34F8FBFF36F8F00DFAB
:1037400000BF000008ED00E04FF0807340F8043C3B
:1037500021F0010140F8081C034B40F80C3C40F8F4
:10376000202C4038704700BFF536000800000000EC
:10377000074B19680868B0E8F00F80F30988BFF3B9
:103780006F8F4FF0000080F311884EF00D0E7047E0
:10379000340100204FF0500383F31188BFF36F8F83
:1037A000BFF34F8F0A4A136801331360012B00D017
:1037B0007047084B1B6813F0FF0FF9D04FF0500310
:1037C00083F31188BFF36F8FBFF34F8FFEE700BF06
:1037D0000800002004ED00E0094B1B6843B94FF0DE
:1037E000500383F31188BFF36F8FBFF34F8FFEE752
:1037F000013B034A13600BB983F31188704700BF84
:103800000800002000000000000000000000000090
:10381000EFF30980BFF36F8F0D4B1A6820E9F00FAB
:1038200010602DE908404FF0500080F31188FFF739
:1038300093FD4FF0000080F31188BDE8084019683F
:103840000868B0E8F00F80F30988BFF36F8F704706
:103850003401002008B54FF0500383F31188BFF303
:103860006F8FBFF34F8FFFF715FC18B1034B4FF06D
:1038700080521A60002383F3118808BD04ED00E034
:10388000064B1B68064AA2FB03239B09013B054A22
:103890001360054B07221A60704700BF1400002018
:1038A000D34D621014E000E010E000E000B583B0FA
:1038B0001E4B1A78D2B20192FF221A701B78DBB22B
:1038C0008DF803309DF8033003F05003184A13704D
:1038D0000723536009E0164A5368013B53609DF883
:1038E00003305B00DBB28DF803309DF8033013F03A
:1038F000800FF0D10E4A53681B0203F4E06353605B
:10390000019BDBB2094A13700A4B1A6842F4700239
:103910001A601A6842F070421A60FFF7B1FF064B56
:1039200000221A60FFF700FFFFF7E4FE00E400E06A
:103930006001002020ED00E008000020EFF3058387
:103940000F2B0FD9104A9B5CDBB2104A12789A42B7
:1039500008D94FF0500383F31188BFF36F8FBFF383
:103960004F8FFEE70A4B1B6803F4E063074A526877
:10397000934208D94FF0500383F31188BFF36F8F40
:10398000BFF34F8FFEE77047F0E300E060010020D7
:103990000CED00E0104A12F0070F1AD0D11D21F0F3
:1039A0000701C1F5005313440A460C490A60002080
:1039B00048601344083B23F007038B60586018608D
:1039C000981A50601360C86008614FF000434B6163
:1039D00070474FF40053E8E78001002068010020A1
:1039E00010B4124B1A6882421AD359685C18844288
:1039F00003D1406801445960184641684418A24206
:103A000012D10A4CA468A2420CD052681144416001
:103A10001A6812680260984200D0186010BC7047A3
:103A20001346DFE70460F6E70260F4E76801002070
:103A300070B50446FFF724FB394B9B68BBB1384B8C
:103A40005B691C4262D1ACB1083414F0070F11D08D
:103A500024F00704083404F007035BB14FF050036F
:103A600083F31188BFF36F8FBFF34F8FFEE7FFF72C
:103A700091FFE4E7002C4BD0294B1B69A34249D3AB
:103A8000274B1D6801E02B4615466A68A24202D208
:103A90002A68002AF7D1224A9268AA423CD01E68BE
:103AA00008362A681A606B681B1B102B10D928195E
:103AB00010F0070F08D04FF0500383F31188BFF3C5
:103AC0006F8FBFF34F8FFEE743606C60FFF788FF97
:103AD0006968134A13695B1A1361D268934201D271
:103AE0000F4AD3600E4B5B690B436B6000232B6066
:103AF000FFF756FB16F0070F10D04FF0500383F37B
:103B00001188BFF36F8FBFF34F8FFEE70026EFE7FB
:103B10000026EDE70026EBE70026E9E7304670BD1A
:103B20006801002080B338B50446A0F1080550F8BC
:103B3000042C164949690A4208D14FF0500383F317
:103B40001188BFF36F8FBFF34F8FFEE750F8080C5B
:103B500040B14FF0500383F31188BFF36F8FBFF371
:103B60004F8FFEE722EA010244F8042CFFF788FA9F
:103B700054F8041C054A13690B4413612846FFF7E7
:103B80002FFFFFF70DFB38BD704700BF6801002015
:103B900000B583B013230193044B0093012300224B
:103BA000D021FDF779FA03B05DF804FB3422002040
:103BB0000138052804D8DFE800F00F0507090B0DD0
:103BC00006487047064870470648704706487047E1
:103BD000064870470648704706487047472200204D
:103BE0005F2200206B2200204D220020592200205D
:103BF000652200205322002030B585B005460E23F3
:103C00008DF80C3004238DF80D30642400940223C9
:103C100003AAD021FDF77EF90F238DF80C30002385
:103C20008DF80D300094022303AAD0212846FDF719
:103C300071F905B030BD00B585B00F238DF80C309B
:103C400000238DF80D3064230093022303AAD021B2
:103C5000FDF760F905B05DF804FB000010B584B015
:103C60000D4B93F83D30002B0CBF012400244FF086
:103C70000E038DF80C300CD105238DF80D30642324
:103C80000093022303AAD021FDF744F9204604B093
:103C900010BD0423F1E700BF34220020052859D0CD
:103CA000062800F0C480042800D0704701291DD0E8
:103CB000002935D00229F8D1934B9A7E052A07D0E6
:103CC000914B5B7E092B0BD001338F4A53767047A3
:103CD0005B7E092BF4D18C4B00225A769A76704782
:103CE000894B0021597601329A767047864B1A7FAC
:103CF000052A07D0844BDB7E092B0BD00133824A87
:103D0000D3767047DB7E092BF4D17F4B0022DA7625
:103D10001A7770477C4B0021D97601321A777047A9
:103D2000794B9A7F022A07D0774B5B7F092B0BD008
:103D30000133754A537770475B7F032BF4D1724B85
:103D400000225A779A7770476F4B002159770132DA
:103D50009A777047012926D0002946D00229A4D19C
:103D6000694B93F82A20032A09D0674B93F829302E
:103D7000092B10D00133644A82F82930704793F838
:103D80002930012BF1D1604B012283F82920002238
:103D900083F82A2070475C4B002183F829100132F8
:103DA00083F82A207047584B93F82820012A09D01D
:103DB000554B93F82730092B0FD00133524A82F824
:103DC0002730704793F82730022BF1D14E4B83F800
:103DD0002720002283F8282070474B4B002183F8CE
:103DE0002710013283F828207047474B93F825307D
:103DF000092B06D0092B10D00133434A82F8253015
:103E00007047414A92F82620092AF3D13E4B0022FE
:103E100083F8252083F8262070473B4B002283F847
:103E2000252093F82620013283F8262070470129A7
:103E300026D0002946D002297FF437AF324B93F8C1
:103E40003220052A09D0304B93F83130092B0FD09E
:103E500001332D4A82F83130704793F83130092B05
:103E6000F1D1294B002283F8312083F832207047AA
:103E7000254B002183F83110013283F8322070473E
:103E8000214B93F83420052A09D01F4B93F8333087
:103E9000092B0FD001331C4A82F83330704793F856
:103EA0003330092BF1D1184B002283F8332083F8EB
:103EB00034207047144B002183F83310013283F80B
:103EC00034207047104B93F83620022A09D00E4B4D
:103ED00093F83530092B0FD001330B4A82F8353077
:103EE000704793F83530032BF1D1074B002283F84C
:103EF000352083F836207047034B002183F83510B6
:103F0000013283F83620D0E634220020074B00220D
:103F100083F8252083F82620012183F8271083F8D1
:103F2000282083F8291083F82A20704734220020A3
:103F300070B584B00446012938D019B102296DD07A
:103F400004B070BD00238DF80C30574DAA7E95F952
:103F5000193043EA02138DF80D30642600960223CF
:103F600003AAD021FCF7D6FF01238DF80C302A7F5D
:103F700095F91B3043EA02138DF80D3000960223A9
:103F800003AAD0212046FCF7C5FF02238DF80C3090
:103F9000A97F95F91D2042EA01128DF80D200096A7
:103FA00003AAD0212046FCF7B5FFC9E706238DF808
:103FB0000C303D4D95F8262095F9253043EA021343
:103FC0008DF80D3064260096022303AAD021FCF759
:103FD000A1FF05238DF80C3095F8282095F927309E
:103FE00043EA02138DF80D300096022303AAD02174
:103FF0002046FCF78FFF04238DF80C3095F82A201B
:1040000095F9293043EA02138DF80D30009602230A
:1040100003AAD0212046FCF77DFF91E707238DF806
:104020000C30214D95F8322095F9313043EA0213D6
:104030008DF80D3064260096022303AAD021FCF7E8
:1040400069FF08238DF80C3095F8342095F933304A
:1040500043EA02138DF80D300096022303AAD02103
:104060002046FCF757FF09238DF80C3095F83620D1
:1040700095F9353043EA02138DF80D30009602238E
:1040800003AAD0212046FCF745FF0A238DF80C3007
:1040900080238DF80D300096022303AAD0212046FC
:1040A000FCF738FF4CE700BF3422002030B4474B08
:1040B0001A7802F00F01D97412091A755A7802F0B1
:1040C0000F01597512099A759A7802F00F01D97586
:1040D000C2F301121A769A7902F00F01D977120908
:1040E00083F820205A7902F00F0183F82110C2F3DF
:1040F000001283F822201A7902F00F0183F82310AE
:10410000C2F3011283F82420DA7902F00F0183F858
:104110002B10120983F82C201A7A02F00F0183F871
:104120002D10120983F82E205A7A02F00F0183F81D
:104130002F10C2F3011283F830209B7C9B09032BC4
:104140003CD8DFE803F002232B33204B002283F816
:10415000372083F838201D4A517C01F07F041C4B26
:1041600083FB04039B101D4603EB83035800231AB3
:1041700082F8393082F83A50C90982F83B10937BB3
:1041800003F0010382F83D3030BC70470F4B05222D
:1041900083F83720022283F83820DCE70B4B00221B
:1041A00083F83720052283F83820D4E7074B05220F
:1041B00083F83720072283F83820CCE7034B00220E
:1041C00083F8372083F83820C5E700BF3422002069
:1041D000676666662DE9F04389B00024049405946F
:1041E000069407943F4B9A6942F010029A619A69CB
:1041F00002F010020092009A9A6942F020029A613D
:104200009A6902F020020192019A9A6942F004022E
:104210009A619A6902F004020292029A9A6942F043
:1042200008029A619B6903F008030393039BDFF87C
:10423000C09022464FF460414846FCF764FA2A4E8B
:10424000224649F6C1713046FCF75DFADFF8A480DA
:1042500022464FF2FB214046FCF755FA4FF46043EB
:1042600004930127059706940225079504A948465B
:10427000FCF758F949F6C17304930597069407951E
:1042800004A93046FCF74EF90495184B05930695A2
:1042900004A93046FCF746F91C23049305940697BD
:1042A00004A93046FCF73EF92023049305940695B3
:1042B00004A93046FCF736F94FF2FB230493059727
:1042C0000694079504A94046FCF72CF922460521DF
:1042D0000720FBF773FF0720FBF7A4FF09B0BDE839
:1042E000F08300BF001002400008014000002110D0
:1042F00000100140000C014000B583B00A4B5A6920
:1043000042F001025A615B6903F001030193019BD2
:10431000002205210F20FBF751FF0F20FBF782FF42
:1043200003B05DF804FB00BF0010024030B587B059
:1043300000240294039404940594009401940F4D76
:104340004FF080432B6044F24F636B60AC6040F2EF
:10435000F313EB602C61AC612846FEF731F94FF4A2
:104360008053029302A92846FDF7AAFF0094019406
:1043700069462846FEF73DF907B030BDA02300206E
:1043800030B587B0002402940394049405940094FB
:1043900001940E4D0E4B2B6040F2E7336B60AC6026
:1043A0004723EB602C61AC612846FEF709F94FF416
:1043B0008053029302A92846FDF782FF00940194DE
:1043C00069462846FEF715F907B030BD08230020DE
:1043D0000004004030B587B0002402940394049494
:1043E0000594009401940E4D0E4B2B6040F2E73380
:1043F0006B60AC608F23EB602C61AC612846FEF7EC
:10440000DFF84FF48053029302A92846FDF758FFC6
:104410000094019469462846FEF7EBF807B030BDDA
:10442000742200200008004008B50948094B0360C9
:10443000094B436000238360C3604FF480420261F4
:1044400043618361C3610362FCF7B0FC08BD00BF38
:10445000B422002000580040801A060000B583B046
:1044600000238DF8073000234FF0FF320DF10701D4
:1044700004480068FEF7A4FB9DF8070000F026FD45
:10448000F1E700BF9C23002008B500234FF0FF3266
:10449000194604480068FEF793FB042000F016FD5F
:1044A000F3E700BF4823002010B504213548FCF78E
:1044B00023F988B9344B5B783BBB344B5B783BB119
:1044C000314B0A225A70314B00225A70012409E004
:1044D00001242D4B5C7005E000242B4B5C702B4BB2
:1044E00001225A7008212748FCF706F9A0B9264B8B
:1044F0009B78BBB9254B9B784BB1234B0A229A7012
:10450000224B00229A7002240CE00024EAE71E4BA2
:1045100001229A70022405E01B4B00229A701B4B6B
:1045200001229A7010211748FCF7E6F890B9164B53
:10453000DB78ABB9154BDB783BB1134B0A22DA7051
:10454000124B0022DA7003240AE00F4B0122DA70CA
:10455000032405E00C4B0022DA700C4B0122DA70C8
:1045600020210848FCF7C8F8012801D0204610BDDA
:10457000054B1B78002BF9D1034B0F221A70052431
:10458000F4E700BF00080140802100200C0000205B
:1045900000B583B000238DF8073002E06420FEF7F9
:1045A00078F8FFF781FF8DF807000028F6D0002388
:1045B0001A460DF1070102480068FEF7E9F9EDE738
:1045C0009C23002030B591B00024089409940B94EA
:1045D0000C9401940294039404940594012206928D
:1045E0004FF4803307930A9202250D950E934FF4F2
:1045F000E0130F9306A8FDF7E7FA0F230193029546
:1046000003944FF4806304930594294601A8FDF7B1
:1046100001FD11B030BD000080B592B0FBF798FDF0
:10462000FFF7D0FFFFF7D6FDFFF766FEFFF77EFE30
:10463000FFF7A6FEFFF7F8FEFFF7CCFE00F038FC10
:10464000002712A840F8047D0121FEF72BF81C4B2F
:1046500018601C4C0CAD26460FCE0FC533682B607E
:1046600039460CA8FDF7FBFF174B186007AD04F1A6
:1046700014060FCE0FC533682B60394607A8FDF727
:10468000EEFF124B186002AD04F128060FCE0FC5E5
:1046900033682B60394602A8FDF7E1FF0C4B186028
:1046A0006B463C3494E8030083E80300394618461F
:1046B000FEF70BF8074B1860FDF7CCFFFEE700BFD5
:1046C00048230020586100089423002090230020F4
:1046D000982300209C23002000B583B00023019381
:1046E00002280CD0019B3BB1084B4FF080521A605E
:1046F000BFF34F8FBFF36F8F03B05DF804FB01A9C9
:10470000034B1868FEF702FAECE700BF04ED00E087
:104710004823002008B50268034B1B689A4200D06A
:1047200008BDFFF7C3FCFBE7B422002038B5044600
:104730000268374B9A420CD02268364B9A420BD013
:104740002268354B9A420AD02368B3F1804F59D082
:1047500038BDFBF70FFDEFE700F072FCF0E72F4BE1
:104760001B79002B44D02D4B5B79BBB92B4B5B786D
:1047700013B1013B294A5370284B9B7813B1013B7D
:10478000264A9370254BDB7813B1013B234AD37043
:10479000224B1B7813B1013B204A13701F4B9B79AE
:1047A00053B300F0A5FA00F05FF81C490B79013310
:1047B000D8B24B790133DDB28B790133DBB2184AC1
:1047C000A2FB03C2520802EB42029B1A8B71154BEB
:1047D000A3FB05235B09642202FB13534B71124BAD
:1047E000A3FB00231B09FA2202FB13030B71ABE7A7
:1047F0000E48FFF7CDF9B6E74FF400710C48FBF710
:1048000088FFCEE70421082000F024FCA0E700BFC9
:10481000002C0140000400400008004080210020DE
:10482000ABAAAAAA1F85EB51D34D6210B422002077
:10483000000C0140704700000949012008704870D1
:10484000084B00221A705A709A7088701A710C22E4
:104850005A713022DA7103229A711A72704700BFBE
:104860000F0000208821002010B5354B1B78002B4D
:1048700052D0334B5B78002B4ED0324A53781344DE
:104880001B79527A03F003039A4230D201224FF48B
:1048900000512D48FBF737FF2A4A537813441B7900
:1048A000527AC3F381039A4228D201224FF4804105
:1048B0002548FBF728FF234A537813441B79527A83
:1048C000C3F301139A4220D201224FF400411E4843
:1048D000FBF719FF1B494B7A0133DBB21B4AA2FBE2
:1048E0000302520802EB42029B1A4B7227E000229D
:1048F0004FF400511448FBF706FFCDE700224FF4B8
:1049000080411148FBF7FFFED5E700224FF400413C
:104910000D48FBF7F8FEDDE70B4C00224FF4004199
:104920002046FBF7F0FE00224FF480412046FBF7C3
:10493000EAFE00224FF400512046FBF7E4FE10BDD2
:104940000F0000208821002000100140ABAAAAAA75
:1049500070B50546DE4B9878FFF72AF90646DD4C20
:1049600000224FF480512046FBF7CDFE00224FF489
:1049700000612046FBF7C7FE00224FF4806120460D
:10498000FBF7C1FE00224FF400712046FBF7BBFE8F
:1049900000224FF480712046FBF7B5FE04F58064D9
:1049A00000224FF400412046FBF7ADFE00224FF4F9
:1049B00080412046FBF7A7FE00224FF4005120461D
:1049C000FBF7A1FE735D092B30D8DFE813F00A0076
:1049D0004400520072009200AE00D000F8000C01BA
:1049E0003A01BC4C01224FF480512046FBF78BFE6C
:1049F00001224FF400612046FBF785FE01224FF4AF
:104A000080612046FBF77FFE01224FF400712046B3
:104A1000FBF779FE01224FF480712046FBF773FE0D
:104A200001224FF40041AC48FBF76DFEA84B9B7888
:104A3000032B00F02E8101228021A648FBF763FEA4
:104A4000022D01D0042D05D101224FF40051A248BE
:104A5000FBF759FE70BD9F4C01224FF400612046C8
:104A6000FBF751FE01224FF480612046FBF74BFE1D
:104A7000DCE7984C01224FF480512046FBF743FEBF
:104A800001224FF400612046FBF73DFE01224FF466
:104A900000712046FBF737FE01224FF4807120465B
:104AA000FBF731FE01224FF480418B48FBF72BFED0
:104AB000BCE7884C01224FF480512046FBF723FECF
:104AC00001224FF400612046FBF71DFE01224FF446
:104AD00080612046FBF717FE01224FF4007120464B
:104AE000FBF711FE01224FF480417B48FBF70BFEE0
:104AF0009CE7784C01224FF400612046FBF703FE4F
:104B000001224FF480612046FBF7FDFD04F580642F
:104B100001224FF400412046FBF7F5FD01224FF43E
:104B200080412046FBF7EFFD80E76A4C01224FF4FD
:104B300080512046FBF7E7FD01224FF480612046BB
:104B4000FBF7E1FD01224FF400712046FBF7DBFD8E
:104B500004F5806401224FF400412046FBF7D3FDA9
:104B600001224FF480412046FBF7CDFD5EE7594C12
:104B700001224FF480512046FBF7C5FD01224FF47E
:104B800080612046FBF7BFFD01224FF400712046F3
:104B9000FBF7B9FD01224FF480712046FBF7B3FD0E
:104BA00004F5806401224FF400412046FBF7ABFD81
:104BB00001224FF480412046FBF7A5FD36E7454C26
:104BC00001224FF480512046FBF79DFD01224FF456
:104BD00000612046FBF797FD01224FF480612046DB
:104BE000FBF791FD22E73B4C01224FF48051204618
:104BF000FBF789FD01224FF400612046FBF783FD9E
:104C000001224FF480612046FBF77DFD01224FF425
:104C100000712046FBF777FD01224FF4807120469A
:104C2000FBF771FD04F5806401224FF4004120463A
:104C3000FBF769FD01224FF480412046FBF763FD3D
:104C4000F4E6244C01224FF480512046FBF75BFD33
:104C500001224FF400612046FBF755FD01224FF47D
:104C600080612046FBF74FFD01224FF40071204682
:104C7000FBF749FD04F5806401224FF40041204612
:104C8000FBF741FD01224FF480412046FBF73BFD3D
:104C9000CCE6002280210F48FBF735FD0022802161
:104CA0000D48FBF730FD022D0AD0042D02D1735DB3
:104CB000012B13D0002240210748FBF724FDC9E651
:104CC00001224FF400510448FBF71DFDEDE700BF42
:104CD0008821002000080140000C014001224FF40F
:104CE00000510248FBF70FFDB4E600BF000C014085
:104CF00010B500224FF400412E48FBF704FD2E4C66
:104D0000002208212046FBF7FEFC0022102120464D
:104D1000FBF7F9FC002220212046FBF7F4FC0022DF
:104D200040212046FBF7EFFC002280212046FBF7C4
:104D3000EAFC224B9B78F3B1214B9B7A052B0AD8D6
:104D4000DFE803F0031A20262C3201224FF4004141
:104D50001848FBF7D8FC1A4CA07AFFF7F9FDA27AA5
:104D60000132D2B2174BA3FB02139B0803EB4303A0
:104D70005900521AA27210BD012208210E48FBF7F9
:104D8000C2FCE8E7012210210B48FBF7BCFCE2E77C
:104D9000012220210848FBF7B6FCDCE70122402174
:104DA0000548FBF7B0FCD6E7012280210248FBF75B
:104DB000AAFCD0E700080140000C01400F000020D1
:104DC00088210020ABAAAAAA08B5C8B2D1B2FEF7C2
:104DD00065FF08BD014B9970704700BF8821002016
:104DE000034A1379013303F03F031371704700BF87
:104DF0008821002008B50848FDF756FA0748FDF756
:104E000053FA0748FDF750FA0648FEF7F5FEFFF79C
:104E10007DF8FFF711FD08BDA02300200823002026
:104E200074220020B4220020014B5970704700BF4B
:104E300088210020014B5970704700BF0F000020EF
:104E400008B5C9B20148FFF773F808BDB4220020C5
:104E5000014B9970704700BF0F000020014B197083
:104E6000704700BF8821002008B50548FEF7F6FE10
:104E700018B90322034B1A7208BD0C22FAE700BFCF
:104E8000B422002088210020024A1378DB431370EB
:104E9000704700BF0F00002008B50248FEF7CBFEA8
:104EA00008BD00BFB422002008B5FFF72FF808BDE9
:104EB00010B5054C204601F017F8204601F025F802
:104EC000204601F027F810BD9421002008B50138D4
:104ED000042807D8DFE800F0030A0E1216000B487A
:104EE00001F0C2F8094801F015F808BD074801F0C3
:104EF000BEF8F7E7054801F0BDF8F3E7034801F015
:104F0000BCF8EFE7014801F0ACF8EBE79421002092
:104F100040B3F0B4074639B342B3002001E001309A
:104F2000C0B204281BD800EB4004E500114C2C440F
:104F3000246B8C421CD0002CF1D10E4D440004EBAC
:104F4000000C4FEACC002844C762016342638363CC
:104F5000C3639DF8103080F84030012000E000204D
:104F6000F0BC7047002070470020F9E70020F7E709
:104F70000020F5E78821002000B583B00093134698
:104F8000024AFFF7C5FF03B05DF804FB516000085B
:104F900070B500240EE01146164A0A44013BD36363
:104FA00006E004EB4405EA00124B134400221A63A6
:104FB0000134E4B2042C1BD804EB4403DA000D4B9B
:104FC0001344196B0029F3D00A4B1344DB6B002BFD
:104FD000E1D163002344DA00064E1644736BF06A95
:104FE000984796F84030002BDBD0B16BF163DFE7D8
:104FF00070BD00BF882100200023042B15D810B4F9
:1050000003EB4302D1000A4A0A44126B824206D0E3
:105010000133DBB2042BF3D9002010BC7047044BE2
:105020000B4400221A630120F7E70020704700BFFD
:105030008821002008B50846FFF7DEFF08BD000004
:1050400008B5FFF7A5FF024800F064FF08BD00BFE8
:1050500094210020814220D810B50446104B1B78C3
:1050600023B10F4B93F8A4308B4211D300220121BE
:105070000C48FBF748FB0A4A92F8A4300133DBB234
:10508000B3FBF4F004FB103082F8A400012010BD43
:1050900001210448FBF73DFBEDE70020704700BF0E
:1050A000882100200008014000B583B0114B9A69A7
:1050B00042F001029A619A6902F001020092009A9C
:1050C000DA6942F08052DA61DB6903F080530193C0
:1050D000019B00220F216FF00100FBF76FF8064AD9
:1050E000536823F0E06343F00073536003B05DF84E
:1050F00004FB00BF001002400000014030B587B043
:10510000002302930393049305930268214B9A4270
:1051100001D007B030BD04461F4DAB6943F0080312
:10512000AB61AB6903F008030093009B4FF440634D
:105130000293122303930323059302A91748FBF755
:10514000F1F9EB6943F48003EB61EB6903F480034D
:105150000193019B1248134B03600023436083605B
:105160008022C2600361436120228261C361FBF738
:105170007BF858B90A4BA3635C6200220521212009
:10518000FBF71CF82120FBF74DF8C2E7FFF752FBB5
:10519000F0E700BF0058004000100240000C014042
:1051A0004C2300205800024000B585B00368B3F1DD
:1051B000804F08D0214A934219D0214A934229D0E6
:1051C00005B05DF804FB03F50433DA6942F001022F
:1051D000DA61DB6903F001030193019B00220521E1
:1051E0001C20FAF7EBFF1C20FBF71CF8E8E7154B37
:1051F000DA6942F00202DA61DB6903F0020302932A
:10520000029B002205211D20FAF7D8FF1D20FBF785
:1052100009F8D5E70B4BDA6942F00402DA61DB6981
:1052200003F004030393039B002205211E20FAF7D9
:10523000C5FF1E20FAF7F6FFC2E700BF00040040DA
:10524000000800400010024000B589B0002201466D
:105250001920FAF7B3FF1920FAF7E4FF144B9A6903
:1052600042F400629A619B6903F400630193019B1D
:1052700002A903A8FCF7C2FFFCF7B0FF0D4BA3FB8C
:1052800000239B0C013B0C480C4A026040F2E732C1
:10529000C2604360002303618360FDF791F918B198
:1052A000012009B05DF804FB0348FCF7FDFFF8E7B7
:1052B0000010024083DE1B43E0230020002C01404D
:1052C0007047FEE7FEE7FEE7FEE7704708B50220FD
:1052D000FBF724FA08BD000008B50248FBF780F888
:1052E00008BD00BF4C23002008B50248FDF770F848
:1052F00008BD00BFE023002008B50248FDF768F8AC
:1053000008BD00BFA023002008B50248FDF760F8E3
:1053100008BD00BF0823002008B50248FDF758F873
:1053200008BD00BF7422002008B50248FCF752FBFC
:1053300008BD00BFB42200200F4B1A6842F00102E2
:105340001A6059680D4A0A405A601A6822F084723D
:1053500022F480321A601A6822F480221A605A6895
:1053600022F4FE025A604FF41F029A60044B4FF081
:1053700000629A60704700BF001002400000FFF812
:1053800000ED00E00023037243728372C372037363
:10539000037643768376C3760377437783777047C4
:1053A0004069022814BF002001207047406903288B
:1053B00014BF00200120704702234361704703237C
:1053C000037000234360704704230370002343608D
:1053D0007047052303700023436070470623037062
:1053E0000023436070470723037000234360704726
:1053F00009230370002343607047122303700023C6
:1054000043607047132303700023436070471423E5
:1054100003700023436070470023037043607047AC
:10542000002303704360704700230370436070479C
:10543000002303704360704700230370436070478C
:10544000002303704360704700230370436070477C
:10545000002303704360704700230370436070476C
:10546000002303704360704700230370436070475C
:1054700008B50378023B052B06D8DFE803F00306E6
:10548000090C0F12FFF7C8FF08BDFFF7C9FFFBE7C4
:10549000FFF7CAFFF8E7FFF7CBFFF5E7FFF7CCFF11
:1054A000F2E7FFF7CDFFEFE708B50378132B07D03E
:1054B000142B08D0122B00D008BDFFF7CDFFFBE75F
:1054C000FFF7CEFFF8E7FFF7CFFFF5E708B5FFF7E7
:1054D0008FFF08BD08B5FFF7F9FF08BD08B5FFF756
:1054E0008CFF08BD08B5FFF7F9FF08BD0020704725
:1054F00008B5FFF77FFC08BD10B504460021FFF793
:1055000069FC00212046FFF78FFC10BD10B5044652
:10551000FFF7F2FF022323700023636010BD08B57C
:10552000FFF7F4FF08BD08B5FFF7F9FF08BD10B598
:105530000446FFF7DDFF2046FFF7F5FF10BD08B575
:10554000FFF7F5FF08BD08B5FFF7F9FF08BD08B57F
:10555000FFF7AAFC08BD10B50446FFF789FF2046F7
:10556000FFF7F5FF10BD08B5FFF79EFC08BD10B5AD
:105570000446FFF799FF2046FFF7F5FF10BD10B571
:1055800004460021FFF726FC012161612046FFF758
:105590005FFC00212046FFF747FC10BD10B5044614
:1055A000FFF7EDFF2046FFF795FF10BD38B50C461D
:1055B00031B10546FFF79AFF10B96B7A13B9002491
:1055C000204638BD2846FFF7C6FF2846FFF7E6FF0E
:1055D000F6E738B50C4609B9204638BD0546FFF751
:1055E000E5FF0028F8D1EB7A0BB90024F4E7284650
:1055F000FFF712FF04212846FFF7ECFB2846FFF7D0
:10560000DEFEE9E708B5FFF7C9FF08BD10B504469F
:10561000032343610221FFF7DDFB04212046FFF74E
:1056200003FC01212046FFF713FC10BD10B5044612
:10563000FFF7ECFF2046FFF755FF10BD08B5FFF759
:10564000F5FF08BD38B50C4609B9204638BD0546FA
:10565000FFF7ACFF0028F8D1EB7A1BB9AB7A43B95E
:105660000024F2E72846FFF7DBFE2846FFF7ACFEF2
:10567000EBE72846FFF7D4FE002204212846FFF777
:10568000A3FB2846FFF79BFEDFE738B50C4609B9B8
:10569000204638BD0546FFF789FF0028F8D1EB7A90
:1056A0001BB9AB7A43B90024F2E72846FFF7C0FEE6
:1056B0002846FFF793FEEBE72846FFF7B9FE0222E4
:1056C00005212846FFF780FB2846FFF782FEDFE72B
:1056D00038B50C4609B9204638BD0546FFF766FFC8
:1056E0000028F8D1EB7A1BB9AB7A43B90024F2E772
:1056F0002846FFF7A1FE2846FFF775FEEBE7284690
:10570000FFF79AFE012205212846FFF75DFB284698
:10571000FFF764FEDFE738B50C4609B9204638BD0F
:105720000546FFF743FF0028F8D1EB7A1BB9AB7AA7
:10573000A3B90024F2E72846FFF776FE00212846A9
:10574000FFF77EFB05212846FFF744FB052128468D
:10575000FFF76AFB2846FFF73CFEDFE72846FFF726
:1057600063FE012204212846FFF72EFB2846FFF79F
:105770002BFED3E738B50C4609B9204638BD05469F
:10578000FFF714FF0028F8D1EB7A1BB9AB7A63B9A5
:105790000024F2E72846FFF753FE01212846FFF7D1
:1057A0004FFB2846FFF7B2FEE7E72846FFF748FE23
:1057B000002205212846FFF707FB2846FFF713FEC6
:1057C000DBE710B504460021FFF704FB2046FFF796
:1057D00063FB01212046FFF73BFB02212046FFF738
:1057E00023FB10BD10B50446002342F2107200F1F5
:1057F0001801FFF7C1FB01212046FFF7EBFA012159
:105800002046FFF711FB10BD10B50446FFF7EAFF75
:105810000A2323700023636010BD10B504460023E3
:1058200042F2107200F11901FFF7A6FB0321204696
:10583000FFF7D0FA03212046FFF7F6FA10BD10B5A6
:105840000446FFF7EAFF0B2323700023636010BDBB
:1058500010B50446002342F2107200F11B01FFF75D
:105860008BFB01212046FFF7B5FA01212046FFF707
:10587000DBFA10BD10B50446FFF7EAFF0F232370D3
:105880000023636010BD10B50446002342F210727D
:1058900000F11C01FFF770FB03212046FFF79AFA85
:1058A00003212046FFF7C0FA10BD10B50446FFF7EC
:1058B000EAFF102323700023636010BD10B5044677
:1058C0000023054A00F11D01FFF756FB0121204688
:1058D000FFF7C4FA10BD00BFE093040010B5044602
:1058E000FFF7ECFF162323700023636010BD08B59B
:1058F000FFF7F4FF08BD08B5FFF7F9FF08BD10B5C5
:105900000446FFF75EFF2046FFF7F5FF10BD38B5F0
:105910000D4641B10446FFF7E9FD20B9237B23B9C9
:10592000637A4BB90025284638BD2046FFF71FFE95
:105930002046FFF7E4FFF6E72046FFF718FE204673
:10594000FFF72CFEEFE738B50C4609B9204638BD05
:105950000546FFF7DCFF0028F8D1EB7A1BB9AB7ADC
:1059600043B90024F2E72846FFF77AFD2846FFF7FF
:105970004EFDEBE72846FFF773FD0022062128467F
:10598000FFF722FA2846FFF73DFDDFE738B50C4662
:1059900009B9204638BD0546FFF7B9FF0028F8D100
:1059A000EB7A1BB9AB7A83B90024F2E72846FFF7FC
:1059B0005BFD02212846FFF743FA02212846FFF744
:1059C00009FA2846FFF719FDE3E72846FFF74CFDE3
:1059D000012206212846FFF7F7F92846FFF717FDB1
:1059E000D7E708B500210161FFF738FA08BD0000CC
:1059F00010B504460023064A00F11E01FFF7BCFA69
:105A000000212046FFF72AFA23690133236110BDE4
:105A1000C027090010B50446FFF7EAFF17232370DB
:105A20000023636010BD08B500F11801FFF702FB09
:105A300008BD08B5002202704260FFF7F4FF08BD00
:105A400010B5044600F11901FFF7F4FA00212046D1
:105A5000FFF7C0F900212046FFF7E6F910BD08B5B1
:105A6000002202704260FFF7EBFF08BD08B5037823
:105A70000A2B07D00B2B08D0092B00D008BDFFF74D
:105A8000E3FCFBE7FFF7D5FFF8E7FFF7E8FFF5E7F3
:105A900008B5FFF7EBFF08BD08B500F11B01FFF7E4
:105AA000C9FA08BD08B5002202704260FFF7F4FF92
:105AB00008BD08B500F11C01FFF7BCFA08BD08B528
:105AC000002202704260FFF7F4FF08BD08B500F144
:105AD0001A01FFF7AFFA08BD08B500220270426054
